:020000040000FA
:100000000A128A1112280800FE00030EF6000408E6
:10001000F7000A08F800831203137F08F9000A1694
:100020008A15F72B0A128A1115288317D230FD0082
:100030001B30FE001330FF00C83084000A168A15FA
:10004000D3230A128A118313F030FD001B30FE0007
:100050001D30FF00E63084000A168A15D3230A12E9
:100060008A11831790308400C8300A168A150B2332
:100070000A128A118313A0308400E6300A168A150A
:100080000B230A128A114F3084006B300A168A152E
:100090000B230A128A1183010A128A15B32EFF005C
:1000A00000308A007F08820754280A128A15682CBB
:1000B0000A128A15C02A0A168A15062D0A128A15EE
:1000C000762B0A128A157C2D0A128A116728831250
:1000D0000313C701C801C701C80147084804031931
:1000E00072287328282D592D0330FF007F08A000A7
:1000F00047080A168A1536240A128A110A168A1522
:10010000E1250A128A11003A031987288828502D00
:100110001730FF007F0883120313A00047080A1658
:100120008A1536240A128A11543E840083138001F2
:10013000800A502D47080A168A1598230A128A1138
:1001400083120313C4001730FF007F08A000470884
:100150000A168A1536240A128A11563E8400831222
:1001600003134408831380001730FF007F08A000AA
:1001700047080A168A1536240A128A11573E840047
:1001800083130008FB3E83120313C400FF300318DF
:100190000030C5001730FF007F08A00047080A168E
:1001A0008A1536240A128A11563E840083120313DC
:1001B0004508803AC60080304602031DE2288313BA
:1001C00000084402031CE528E628FF2883120313D5
:1001D000A001A00A47080A168A1553230A128A1199
:1001E00083120313AA01AA0AE830AB000330AC0063
:1001F00047080A168A118F220A128A114A291730D3
:10020000FF007F0883120313A00047080A168A150F
:1002100036240A128A11573E840083130008053ED3
:1002200083120313C400003003180130C5001730D7
:10023000FF007F08A00047080A168A1536240A1214
:100240008A11563E8400831203134508803A803C8D
:10025000031D2D29440883130002031C3029312972
:100260004A290230FF007F0883120313A0004708C9
:100270000A168A1553230A128A1183120313AA013C
:10028000AA0A0030AB00AC0047080A168A118F2278
:100290000A128A111730FF007F0883120313A0008F
:1002A00047080A168A1536240A128A11553E840018
:1002B000033083130006031D5E295F29732917305D
:1002C000FF007F0883120313A00047080A168A154F
:1002D00036240A128A11543E84000330FF007F083E
:1002E00083138000502D1730FF007F088312031303
:1002F000A00047080A168A1536240A128A11543EAD
:1003000084000230FF007F0883138000502D1730D7
:10031000FF007F08A00047080A168A1536240A1233
:100320008A11543E84008313000883120313C4000F
:100330001730FF007F08A00047080A168A153624E8
:100340000A128A11553E8400831203134408831352
:100350008000AA01AA0A0030AB00AC004708C40024
:1003600044070A168A1591270A128A118312031369
:10037000AA01AA0A0030AB00AC000314470D0A160C
:100380008A1591270A128A110A3083120313AB00CF
:100390000030AC001730FF007F08A00047080A16A5
:1003A0008A1536240A128A11563E840083130008E7
:1003B00083120313C400C5014408AD004508AE0014
:1003C0000A168A11D4230A128A11831203132B08E6
:1003D000FF007F08B1004708C60046070A168A15C5
:1003E0000C240A128A110A3083120313AB00003066
:1003F000AC000A30A3000030A4001730FF007F08D3
:10040000A00047080A168A1536240A128A11563E99
:1004100084008313000883120313C400C501440839
:10042000A5004508A6000A168A11B6250A128A11E7
:10043000831203132408AE002308AD000A168A11A4
:10044000D4230A128A11831203132B08FF007F089A
:10045000B1000314470D0A168A150C240A128A11DA
:100460000330FF007F0883120313A00047080A1619
:100470008A1536240A128A11023E0A168A15E125C7
:100480000A128A11003A031D462A472A5E2A0330BF
:10049000FF007F0883120313A00047080A168A157D
:1004A00036240A128A11013E0A168A15E1250A121B
:1004B0008A11003A03195D2A5E2A722A1730FF005A
:1004C0007F0883120313A00047080A168A153624F2
:1004D0000A128A11543E84000330FF007F08831300
:1004E0008000502D0330FF007F0883120313A0000B
:1004F00047080A168A1536240A128A110A168A151E
:10050000E1250A128A11003A0319872A882A9C2AAF
:100510001730FF007F0883120313A00047080A1654
:100520008A1536240A128A11543E84000430FF00D2
:100530007F0883138000502D1730FF007F0883123F
:100540000313A00047080A168A1536240A128A11D6
:10055000543E840083138001800A502D1730FF0021
:100560007F08A00047080A168A1536240A128A1145
:10057000543E84008313000883120313C400173011
:10058000FF007F08A00047080A168A1536240A12C1
:100590008A11553E8400831203134408831380009C
:1005A000AA01AA0AE830AB000330AC004708C40037
:1005B00044070A168A1591270A128A118312031317
:1005C000AA01AA0AE830AB000330AC000314470DBF
:1005D0000A168A1591270A128A110A308312031308
:1005E000AB000030AC001730FF007F08A0004708C8
:1005F0000A168A1536240A128A11573E840083137C
:10060000000883120313C400C5014408AD00450867
:10061000AE000A168A11D4230A128A118312031318
:100620002B08FF007F08B1004708C60046070A16DE
:100630008A150C240A128A110A3083120313AB00A4
:100640000030AC000A30A3000030A4001730FF00D7
:100650007F08A00047080A168A1536240A128A1154
:10066000573E84008313000883120313C400C5019E
:100670004408A5004508A6000A168A11B6250A12E4
:100680008A11831203132408AE002308AD000A1652
:100690008A11D4230A128A11831203132B08FF0034
:1006A0007F08B1000314470D0A168A150C240A129C
:1006B0008A110330FF007F0883120313A00047084C
:1006C0000A168A1536240A128A11023E0A168A155B
:1006D000E1250A128A11003A03196F2B702BAA2BFD
:1006E0001730FF007F0883120313A00047080A1683
:1006F0008A1536240A128A11573E84004730831324
:1007000000020318842B852BAA2B1730FF007F08CB
:1007100083120313A00047080A168A1536240A120A
:100720008A11573E84000530FF007F08831380073D
:100730001730FF007F0883120313A00047080A1632
:100740008A1536240A128A11583E840083138001C8
:10075000840A80010330FF007F0883120313A00086
:1007600047080A168A1536240A128A11013E0A160B
:100770008A15E1250A128A11003A0319C02BC12BF0
:10078000F92B1730FF007F0883120313A0004708DE
:100790000A168A1536240A128A11573E8400283018
:1007A00083130002031CD52BD62BF92B1730FF0027
:1007B0007F0883120313A00047080A168A153624FF
:1007C0000A128A11573E84000530831380021730C5
:1007D000FF007F0883120313A00047080A168A153A
:1007E00036240A128A11583E840083138001840A39
:1007F00080010330FF007F0883120313A000470825
:100800000A168A1536240A128A110A168A15E12553
:100810000A128A11003A03190E2C0F2C232C1730C0
:10082000FF007F0883120313A00047080A168A15E9
:1008300036240A128A11543E84000430FF007F08D7
:1008400083138000342C1730FF007F0883120313BA
:10085000A00047080A168A1536240A128A11543E47
:10086000840083138001800A1730FF007F08831201
:100870000313A00047080A168A1536240A128A11A3
:10088000583E84008313000883120313C400013010
:100890008007840A0008C50000300318800A80071A
:1008A00000304502193003194402031C582C592CFE
:1008B000502D1730FF007F08A00047080A168A1540
:1008C00036240A128A11583E840083138001840A58
:1008D00080011730FF007F0883120313A000470830
:1008E0000A168A1536240A128A11573E8400831389
:1008F0000008FF007F0883120313A30008300A16C4
:100900008A1533270A128A111730FF007F088312D5
:100910000313A00047080A168A1536240A128A1102
:10092000543E84000230FF007F0883138000502D66
:10093000A00147080A168A1553230A128A11831246
:100940000313AA010030AB00AC0047080A168A1155
:100950008F220A128A1183120313AA010030AB00FE
:10096000AC004708C40044070A168A1591270A12EA
:100970008A1183120313AA010030AB00AC000314E8
:10098000470D0A168A1591270A128A111730FF009F
:100990007F0883120313A00047080A168A1536241D
:1009A0000A128A11573E840083130008FF007F0853
:1009B00083120313A30008300A168A1533270A127C
:1009C0008A111730FF007F0883120313A000470825
:1009D0000A168A1536240A128A11583E8400831397
:1009E0008001840A80011730FF007F0883120313FF
:1009F000A00047080A168A1536240A128A11543EA6
:100A00008400831380011730FF007F0883120313D3
:100A1000A00047080A168A1536240A128A11543E85
:100A200084008313000883120313C4001730FF00EF
:100A30007F08A00047080A168A1536240A128A1170
:100A4000553E840083120313440883138000502D05
:100A50001730FF007F08A00047080A168A153624C1
:100A60000A128A11543E8400831300088312031370
:100A7000C400C5014508003A03193F2D502D440814
:100A8000003A03197428013A03199A28033A031902
:100A90008729013A0319AE2A073A0319982C502DD9
:100AA000013083120313C7070318C80A0030C807B0
:100AB0006D28080083120313C701C801C701C801CC
:100AC0000A168A15DA260A128A111730FF007F08E3
:100AD00083120313A00047080A168A1536240A1247
:100AE0008A11543E8400831380011730FF007F0871
:100AF00083120313A00047080A168A1536240A1227
:100B00008A11543E84008313000883120313C20029
:100B10001730FF007F08A00047080A168A15362400
:100B20000A128A11553E840083120313420883136C
:100B300080001730FF007F08A00047080A168A15BA
:100B400036240A128A11563E84008313800117301E
:100B5000FF007F0883120313A00047080A168A15B6
:100B600036240A128A11573E84003C30FF007F0869
:100B7000831380001730FF007F0883120313A00047
:100B800047080A168A1536240A128A11583E84002C
:100B900083138001840A80011730FF007F088312CD
:100BA0000313A00047080A168A1536240A128A1170
:100BB0005A3E840083138001800A1730FF007F08AB
:100BC00083120313A00047080A168A1536240A1256
:100BD0008A115B3E84002330FF007F08831380006E
:100BE0001730FF007F0883120313A00047080A167E
:100BF0008A1536240A128A115C3E84005030FF00A8
:100C00007F08831380001730FF007F0883120313CF
:100C1000A00047080A168A1536240A128A115D3E7A
:100C200084007730FF007F08831380001730FF00B7
:100C30007F0883120313A00047080A168A1536247A
:100C40000A128A115E3E84007230FF007F0883130F
:100C500080001730FF007F0883120313A0004708AD
:100C60000A168A1536240A128A115F3E840055300E
:100C7000FF007F08831380001730FF007F08831276
:100C80000313A00047080A168A1536240A128A118F
:100C9000603E84007030FF007F08831380001730AF
:100CA000FF007F0883120313A00047080A168A1565
:100CB00036240A128A11613E84005F30FF007F08EB
:100CC000831380001730FF007F0883120313A000F6
:100CD00047080A168A1536240A128A11623E8400D1
:100CE0003130FF007F08831380001730FF007F083A
:100CF00083120313A00047080A168A1536240A1225
:100D00008A11633E8400831380011730FF007F083F
:100D100083120313A00047080A168A1536240A1204
:100D20008A11643E8400831380011730FF007F081E
:100D300083120313A00047080A168A1536240A12E4
:100D40008A11653E8400831380011730FF007F08FD
:100D500083120313A00047080A168A1536240A12C4
:100D60008A11663E8400831380011730FF007F08DC
:100D700083120313A00047080A168A1536240A12A4
:100D80008A11673E8400831380011730FF007F08BB
:100D900083120313A00047080A168A1536240A1284
:100DA0008A11683E8400831380011730FF007F089A
:100DB00083120313A00047080A168A1536240A1264
:100DC0008A11693E8400831380011730FF007F0879
:100DD00083120313A00047080A168A1536240A1244
:100DE0008A116A3E8400831380011730FF007F0858
:100DF00083120313A00047080A168A1536240A1224
:100E00008A11633EFF007F0883120313A30008309A
:100E1000FF007F08A40000300A168A11ED240A1290
:100E20008A1183120313C501C6011730FF007F0822
:100E3000A00047080A168A1536240A128A11633E52
:100E4000831203134507C20042088400831300087D
:100E5000C3001730FF007F08A00047080A168A1554
:100E600036240A128A115B3E831203134507C4001D
:100E7000440884008313000843060319402F412FC0
:100E8000502F1730FF007F08A00047080A168A1568
:100E900036240A128A115A3E8400831380015F2F80
:100EA0000130C5070318C60A0030C60700304602E5
:100EB000083003194502031C5E2F5F2F152F1730D2
:100EC000FF007F0883120313A00047080A168A1543
:100ED00036240A128A115A3E84008313000803192B
:100EE000722F732F8C2F1730FF007F08831203138C
:100EF000A00047080A168A1536240A128A11573E9E
:100F0000840008300A168A11D8200A128A11FF00BC
:100F10007F0883138000D22F1730FF007F088312D1
:100F20000313A00047080A168A1536240A128A11EC
:100F30005B3EFF007F0883120313A3000830FF000D
:100F40007F08A40000300A168A1142220A128A1170
:100F5000003083120313AC000030AB000030AA0055
:100F60000A30A9000A168A1160200A128A11173065
:100F7000FF007F0883120313A00047080A168A1592
:100F800036240A128A11573E840083130008FF009A
:100F90007F0883120313A30008300A168A1533272B
:100FA0000A128A11013083120313C7070318C80AF3
:100FB0000030C807470848040319DF2FE02F602DD1
:100FC000080083120313B00030080319E82FE92F3B
:100FD000F42FAA010030AB00AC0000300A168A11D1
:100FE0008F220A128A11FF2FAA01AA0A0030AB0031
:100FF000AC0000300A168A118F220A128A110800EA
:1010000083120313A3000530FF007F08A00023080C
:101010000A168A1536240A128A15903E8400831710
:101020000008031D14281528162866280530FF001F
:101030007F0883120313A00023080A168A1536249A
:101040000A128A15903E8400831780010530FF0044
:101050007F0883120313A00023080A168A1536247A
:101060000A128A15913E8400831780010530FF0023
:101070007F0883120313A00023080A168A1536245A
:101080000A128A15923E8400831780010530FF0002
:101090007F0883120313A00023080A168A1536243A
:1010A0000A128A15933E8400831780010530FF00E1
:1010B0007F0883120313A00023080A168A1536241A
:1010C0000A128A15943E8400831780010800831257
:1010D0000313B701B801B701B8013708B2000130F6
:1010E0000310B20DFF3E031D70280310320DDF3ECA
:1010F000840083130008FF007F08A300A4013708C1
:10110000B30001300310B30DFF3E031D822803100E
:10111000330DDE3E840000080A168A11F5210A12FA
:101120008A15831203133708B20001300310B20D81
:10113000FF3E031D96280310320DE13E8400831309
:101140000008B300B4013308B5003408B600C7285E
:101150003508FF007F08A300A4013708B200013062
:101160000310B20DFF3E031DB0280310320DE03E08
:10117000840000080A168A11F5210A128A15013026
:1011800083120313B5070318B60A0030B6073708F1
:10119000B20001300310B20DFF3E031DCA28031038
:1011A000320DE13E840083130008083EB300003096
:1011B00003180130B40034083602031DE128330857
:1011C0003502031CE428E528A8280130B7070318D6
:1011D000B80A0030B807003038020230031937026D
:1011E000031CF328F4286D28080083120313A600BB
:1011F000A701A801A701A8010530FF007F08A000F2
:1012000027080A168A1536240A128A15903E840089
:1012100083170008031D0D290E290F2920290130ED
:1012200083120313A7070318A80A0030A807003089
:101230002802083003192702031C1F292029FC2833
:1012400008308312031327062804031D282929299F
:101250002A2984290530FF007F08A00027080A16E4
:101260008A1536240A128A15903E840083120313CD
:101270002608FF007F08831780000530FF007F08E5
:10128000A00027080A168A1536240A128A15913EEC
:101290008400831203132308FF007F088317800054
:1012A0000530FF007F08A00027080A168A1536249B
:1012B0000A128A15923E8400831203132408FF0049
:1012C0007F08831780000530FF007F08A0002708F3
:1012D0000A168A1536240A128A15933E8400831250
:1012E00003132508FF007F08831780000530FF00E7
:1012F0007F08A00027080A168A1536240A128A15C4
:10130000943E840083178001080083120313CD01EB
:10131000CE01CD01CE010530FF007F08A0004D08B1
:101320000A168A1536240A128A15943E84008317F9
:10133000000803199C299D29FB290530FF007F081F
:1013400083120313A0004D080A168A1536240A12C8
:101350008A15903E840083170008FF007F088312DF
:101360000313CB000530FF007F08A0004D080A16CC
:101370008A1536240A128A15913E840083170008C4
:10138000FF007F0883120313CC004C08FF007F0886
:10139000C3004B080A128A114F200A128A15053021
:1013A000FF007F0883120313A0004D080A168A1558
:1013B00036240A128A15943E840083178001053072
:1013C000FF007F0883120313A0004D080A168A1538
:1013D00036240A128A15933E840083170008031DE1
:1013E000F229F329FB29831203134D080A128A15E7
:1013F00000200A128A15013083120313CD07031847
:10140000CE0A0030CE0700304E02083003194D02DC
:10141000031C0B2A0C2A8B290A168A15AA230A12E6
:101420008A150A168A154D240A128A150800831295
:101430000313B201B301B201B3010D30FF007F0805
:10144000A00032080A168A1536240A128A15B33EFD
:1014500084000230FF007F08831380000D30FF00FE
:101460007F0883120313A00032080A168A15362457
:101470000A128A15B43E8400593083138000840A0E
:1014800073308000840A07308000840A00308000B6
:101490000D30FF007F0883120313A00032080A16E4
:1014A0008A1536240A128A15B83E84004030831308
:1014B0008000840A42308000840A0F308000840A51
:1014C000003080000D30FF007F0883120313A0005E
:1014D00032080A168A1536240A128A15BC3E840080
:1014E000831380010D30FF007F0883120313A000D7
:1014F00032080A168A1536240A128A15B13E84006B
:1015000083130008FF007F0883120313A300A401C4
:10151000A40A0D30FF007F08A00032080A168A15C1
:1015200036240A128A15B03E8400831300080A1676
:101530008A11F5210A128A150D30FF007F088312E7
:101540000313A00032080A168A1536240A128A15D7
:10155000B23E8400831300080A168A1548230A1233
:101560008A15013083120313B2070318B30A00303F
:10157000B307320833040319BE2ABF2A1D2A080004
:1015800083120313C401C501C401C5010330FF0068
:101590007F08A00044080A168A1536240A128A1504
:1015A000C93E8400831300080319D72AD82AEA2ADF
:1015B0000330FF007F0883120313A00044080A16BB
:1015C0008A1536240A128A15C93E84000130831315
:1015D0008002642B8312031344080A168A1593248D
:1015E0000A128A15003A031DF62AF72A542B0330F3
:1015F000FF007F0883120313A00044080A168A150F
:1016000036240A128A15CA3E84000130FF007F0882
:10161000831380070330FF007F0883120313A000A9
:1016200044080A168A1536240A128A15CA3E84000E
:10163000023083130006031D1E2B1F2B642B033067
:10164000FF007F0883120313A00044080A168A15BE
:1016500036240A128A15C93E84003230FF007F0802
:10166000831380000330FF007F0883120313A00060
:1016700044080A168A1536240A128A15CA3E8400BE
:10168000831380010330FF007F0883120313A0003F
:1016900044080A168A1536240A128A15CB3E84009D
:1016A00083138001800A642B0330FF007F088312BC
:1016B0000313A00044080A168A1536240A128A1554
:1016C000CA3E840083138001013083120313C407D0
:1016D0000318C50A0030C50700304502033003195E
:1016E0004402031C742B752BC62A080083120313B3
:1016F000C701C801C701C8010630FF007F08A0006C
:1017000047080A168A1536240A128A15C13E840033
:101710008313000883120313C400840A0008C50061
:10172000440845040319952B962BAC2B0630FF007B
:101730007F08A00047080A168A1536240A128A155F
:10174000C13E8400013083138002840F0030031CEB
:101750008003800284031F2C0630FF007F08A00056
:1017600047080A168A1536240A128A15BF3E8400D5
:101770008313000883120313C400840A0008C50001
:10178000440845040319C52BC62B112C0630FF0055
:101790007F08A00047080A168A1536240A128A15FF
:1017A000BD3E84008313000883120313C400063077
:1017B000FF007F08A00047080A168A1536240A127F
:1017C0008A15BE3E840083120313440883138006E7
:1017D0000630FF007F08A00047080A168A15362445
:1017E0000A128A15BF3E8400831300088312031374
:1017F000C400840A0008C5000630FF007F08A0006E
:1018000047080A168A1536240A128A15C13E840032
:1018100083120313440883138000840A4508800060
:101820001F2C0630FF007F08A00047080A168A1503
:1018300036240A128A15BE3E8400831380010630C6
:10184000FF007F0883120313A00047080A168A15B9
:1018500036240A128A15BD3E8400831300088312C1
:101860000313C4000630FF007F08A00047080A16D3
:101870008A1536240A128A15BE3E84008313000896
:101880000319432C452C0130462C003083120313DE
:101890004405FF007F08C6004608FF007F08AE0031
:1018A00047080A168A112B230A128A15013083125F
:1018B0000313C7070318C80A0030C80700304802DE
:1018C000023003194702031C662C672C7C2B08008E
:1018D00083120313C901CA01C901CA0149080A16C2
:1018E0008A1100270A128A1583120313C4000E30CE
:1018F000FF007F08A00049080A168A1536240A123C
:101900008A15C43E84000E30FF007F088312031343
:10191000A00049080A168A1536240A128A15BA3E0A
:101920008317000783120313C50045088400440889
:1019300080000E30FF007F08A00049080A168A15B3
:1019400036240A128A15C43E84000130FF007F0845
:10195000831780070E30FF007F0883120313A00057
:1019600049080A168A1536240A128A15C43E8400CC
:101970000A3083170006031DBE2CBF2CE02C0E304E
:10198000FF007F0883120313A00049080A168A1576
:1019900036240A128A15C43E8400831780010E3053
:1019A000FF007F0883120313A00049080A168A1556
:1019B00036240A128A15C53E840083178001800AE6
:1019C0000E30FF007F0883120313A00049080A1697
:1019D0008A1536240A128A15C53E8400831700082A
:1019E0000319F32CF42C6D2D83120313C701C801C6
:1019F0000E30FF007F08A00049080A168A15362419
:101A00000A128A15BA3E831203134707C40044081A
:101A1000840083170008C500C6010E30FF007F0850
:101A2000A00049080A168A1536240A128A15C63EED
:101A3000840083120313450883178007840F00086E
:101A40000318000AFF0046087F0780008403013066
:101A5000C7070318C80A0030C807003048020A3018
:101A600003194702031C352D362DF82C0A30A3002C
:101A70000030A4000E30FF007F08A00049080A16BD
:101A80008A1536240A128A15C63E84008317000878
:101A900083120313A500840A0008A6000A168A11FF
:101AA0001C210A128A15831203132308C400240878
:101AB000C5000E30FF007F08A00049080A168A15ED
:101AC00036240A128A15C63E840083120313440882
:101AD00083178000840A45088000013083120313B5
:101AE000C9070318CA0A0030CA0749084A0403197B
:101AF0007A2D7B2D6E2C080083120313C801C901B7
:101B0000C801C9014808C40002300310C40DFF3EDB
:101B1000031D852D0310440DA63E84008313000889
:101B2000C500840A0008C600450846040319992D1B
:101B30009A2DAF2D4808C40002300310C40DFF3E9B
:101B4000031D9D2D0310440DA63E8400013080022C
:101B5000840F0030031C800380028403122E480887
:101B6000C40002300310C40DFF3E031DB22D03104C
:101B7000440DA43E84000008C500840A0008C60085
:101B8000450846040319C52DC62D052E4808C40076
:101B900002300310C40DFF3E031DC92D0310440D78
:101BA000A23E84000008FF004808C5000230031070
:101BB000C50DFF3E031DD72D0310450DA33E840028
:101BC0007F0880064808C40002300310C40DFF3EA1
:101BD000031DE52D0310440DA43E84000008C5003C
:101BE000840A0008C6004808C70002300310C70D69
:101BF000FF3E031DF62D0310470DA63E8400450849
:101C00008000840A46088000122E4808C400023072
:101C10000310C40DFF3E031D082E0310440DA33E08
:101C200084008001AE0148080A168A15AF260A1200
:101C30008A15831203134808C40002300310C40D30
:101C4000FF3E031D1E2E0310440DA03E840083138F
:101C50000008031D2C2E2D2E712E4808C4000230C2
:101C60000310C40DFF3E031D302E0310440DA13E92
:101C700084000008FF007F08AA0048080A168A119D
:101C800027200A128A15831203134808C400023061
:101C90000310C40DFF3E031D482E0310440DA23E49
:101CA000840083130008C5004808C60002300310F2
:101CB000C60DFF3E031D572E0310460DA33E8400A4
:101CC00000080319642E662E0130672E003045058A
:101CD000FF007F08AE0048080A168A15AF260A12D0
:101CE0008A150130FF00831203134808C400023034
:101CF0000310C40DFF3E031D782E0310440DA03EBB
:101D000084007F08831380074808C4000230031052
:101D1000C40DFF3E031D872E0310440DA03E84001A
:101D200002300006031D952E962EA32E4808C400EF
:101D300002300310C40DFF3E031D992E0310440D05
:101D4000A03E840080010130C8070318C90A003092
:101D5000C90700304902023003194802031CB12EA2
:101D6000B22E822D080083120313A001A00AA10144
:101D700000300A168A1564240A128A158312031386
:101D8000A001A00AA101A10A01300A168A15642443
:101D90000A128A1583120313A001A00A0230FF0061
:101DA0007F08A10002300A168A1564240A128A15D7
:101DB0000A168A1562270A128A150A168A11AA219A
:101DC0000A128A1583120313A3010230FF007F0851
:101DD000A40000300A168A1585260A128A150A12EE
:101DE0008A1517220A128A150A168A111F260A1244
:101DF0008A150230FF007F0883120313A00005300C
:101E0000FF007F08A10000300A168A15BC250A12BF
:101E10008A150230FF007F0883120313A0000230EE
:101E2000FF007F08A10000300A168A1597250A12C4
:101E30008A150A168A118E240A128A150A168A151C
:101E4000C7240A128A1583120313A301A30A0630BA
:101E5000FF007F08A40000300A168A155B260A12CC
:101E60008A1583120313A301A30A0730FF007F081A
:101E7000A40001300A168A155B260A128A150A1672
:101E80008A11DC220A128A150A168A112F240A12D4
:101E90008A1583120313A0010530FF007F08A100FB
:101EA00000300A168A154D250A128A150330FF00E4
:101EB0007F0883120313A000A10100300A168A15BF
:101EC00072250A128A1583120313A0010430FF0041
:101ED0007F08A10001300A168A154D250A128A15BD
:101EE0000330FF007F0883120313A000A10101301B
:101EF0000A168A1572250A128A150A128A1567208F
:101F00000A128A150A168A118F260A128A150A12CF
:101F10008A115A250A128A15003083120313A3006E
:101F20000030A2000330A100E830A0000A168A1594
:101F3000C7270A128A150A168A15E4240A128A1576
:101F400083120313A301A4010230FF007F08A50040
:101F500004300A128A15F5200A128A158312031317
:101F6000A301A4011430FF007F08A50001300A126C
:101F70008A15F5200A128A1583120313A301A401FE
:101F80001430FF007F08A50007300A128A15F520DB
:101F90000A128A1583120313A301A4011430FF004F
:101FA0007F08A5000A300A128A15F5200A128A1540
:101FB00083120313A301A401A501A50A0D300A127F
:101FC0008A15F5200A128A1583120313A301A401AE
:101FD0001430FF007F08A50010300A128A15F52082
:101FE0000A128A150A168A155F230A128A150A121E
:101FF0008A1585210A128A15F72F0A128A111228CA
:1020000083120313A401A501201C072808280E2809
:102010002208A4070318A50A2308A5070130031006
:10202000A20DA30DFF3E031D0F2801300310A10CCC
:10203000A00CFF3E031D162820082104031D2128A3
:10204000222804282508A1002408A00008008312E3
:102050000313AE00FF30AB002E08AC0001300310BC
:10206000AC0DFF3E031D2F2803102C0DE13E840014
:102070008313000A3D280310AB0DFF3E031D3B28D0
:102080002B08FF007F08A0002A08C83E84008317A1
:102090000008FF007F08A1002E08AD0001300310EA
:1020A000AD0DFF3E031D4F2803102D0DE03E8400B3
:1020B000831300080A168A1506270A168A110800D3
:1020C0006E280030A3000030A2000330A100E830E9
:1020D000A0000A168A15C7270A168A110130831232
:1020E0000313AD000030AE000030AF000030B00090
:1020F0002D08A9022E08031C2E0F7F288028AA0273
:102100002F08031C2F0F85288628AB023008031CDC
:10211000300F8B288C28AC02290A031D99282A0A23
:10212000031D99282B0A031D99282C0A031D9928A1
:102130009A286128080083120313AD002408A50023
:10214000230AA4280310A50DFF3E031DA2282D0875
:10215000A6002607E63E840083130008A700840A31
:102160000008A800270884008317281C8313013067
:10217000A900230ABD280310A90DFF3E031DBB289B
:102180002908FF3A00052504FF002D08AA002A07A8
:10219000E63E840083130008AB00840A0008AC000C
:1021A0002B08840083172C1C83137F0880000800F1
:1021B00083120313A1000A168A1532230A168A1104
:1021C000E6280A168A1527230A168A11A0300A164D
:1021D0008A157B240A168A11003A031DF028F1287B
:1021E000E1288312031321080A168A157B240A1694
:1021F0008A110A168A1532230A168A11A1300A1684
:102200008A157B240A168A110A168A15AC240A1626
:102210008A11FF007F0883120313A2000A168A1591
:1022200078230A168A110A168A153D230A168A117E
:10223000831203132208080083120313A701A801C5
:10224000230824040319252926295D29A901A90A9F
:10225000342901300310A30DA40DFF3E031D2A29CC
:102260000130FF007F08A907A41F37293829292931
:1022700001300310A70DA80DFF3E031D39292408C6
:102280002602031D452923082502031C4829492944
:1022900050292308A5022408031CA603A60227141C
:1022A00001300310A40CA30CFF3E031D5129013083
:1022B000A902031D5C295D2938292808A4002708E4
:1022C000A3000800003083120313AF000030AE00FB
:1022D0000030AD000030AC00231C6F297029872925
:1022E0002708AC07280803110318013E03197929B0
:1022F000AD07290803110318013E03198029AE0711
:102300002A0803110318013E03198729AF0701307A
:10231000AB000310A70DA80DA90DAA0DAB0B8929C1
:1023200001300310A60CA50CA40CA30CFF3E031D4A
:1023300091292608250424042304031DA029A1298A
:102340006C292F08A6002E08A5002D08A4002C0833
:10235000A300080083120313B601B701B601B70149
:102360000330FF007F08A00036080A168A153624BD
:102370000A168A11C93E8400831380010330FF00CE
:102380007F0883120313A00036080A168A15362424
:102390000A168A11CA3E8400831380010330FF00AD
:1023A0007F0883120313A00036080A168A15362404
:1023B0000A168A11CB3E84008313800101308312F8
:1023C0000313B6070318B70A0030B7070030370207
:1023D000033003193602031CEE29EF29B0290A162F
:1023E0008A1562270A168A11080083120313B100A6
:1023F0002408A500230AFE290310A50DFF3E031D96
:10240000FC293108A6002607E63E84008313000855
:10241000A700840A0008A8002708803EA900280811
:102420000318013E003EAA002908840083172A1CD5
:1024300083130130AB00230A1F2A0310AB0DFF3EAC
:10244000031D1D2A2B08FF3A00052504FF00310853
:10245000AC002C07E63E840083130008AD00840A1C
:102460000008AE002D08803EAF002E080318013E84
:10247000003EB0002F0884008317301C83137F08B0
:102480008000080083120313A7000A168A1532235E
:102490000A168A11502A0A168A1527230A168A1143
:1024A000A0300A168A157B240A168A11003A031DE9
:1024B0005A2A5B2A4B2A8312031327080A168A1505
:1024C0007B240A168A1183120313A801A9017C2A0E
:1024D00028082307A50025088400831300080A168E
:1024E0008A157B240A168A11013083120313A80768
:1024F0000318A90A0030A9072408A500A601260888
:102500002902031D852A25082802031C882A892AF6
:10251000682A0A168A153D230A168A1108008312B2
:102520000313AF000630FF007F08A0002F080A1633
:102530008A1536240A168A11BD3E840083120313BD
:102540002A08FF007F08831380000530A3000030B5
:10255000A4002C08A6002B08A5000A168A111C212D
:102560000A168A11831203132408AE002308AD0053
:102570000630FF007F08A0002F080A168A153624AF
:102580000A168A11BF3E8400143083120313A3007D
:102590000030A4002E08A6002D08A5000A168A11F6
:1025A0001C210A168A118312031323088313800047
:1025B000840A24088000080083120313B201B301C7
:1025C000B201B3010330FF007F08A00032080A16F1
:1025D0008A1536240A168A11DA3E84008313800194
:1025E0000330FF007F0883120313A00032080A168D
:1025F0008A1536240A168A11D93E840083130008EE
:10260000FF007F0883120313A300A4010330FF001F
:102610007F08A00032080A168A1536240A168A1185
:10262000D83E8400831300080A168A11F5210A1681
:102630008A11013083120313B2070318B30A003062
:10264000B30700303302023003193202031C292B76
:102650002A2BE22A080083120313AF000330FF0085
:102660007F08A0002F080A168A1536240A168A1138
:10267000DA3E8400831203132E08FF007F088313C1
:1026800080000330FF007F08A0002F080A168A157B
:1026900036240A168A11D93E840083130008FF00ED
:1026A0007F0883120313A3000330FF007F08A000FC
:1026B0002F080A168A1536240A168A11DA3E840073
:1026C00083130008FF007F0883120313A400033064
:1026D000FF007F08A0002F080A168A1536240A1664
:1026E0008A11D83E8400831300080A168A119B20A1
:1026F0000A168A11080083120313B2003208AF00D1
:1027000001300310AF0DFF3E031D812B03102F0D71
:10271000503E840083130008FF007F08A3002E08AA
:102720000139FF007F08A4003208B0000130031017
:10273000B00DFF3E031D972B0310300D4F3E84005C
:1027400000080A168A119B200A168A1183120313A5
:102750003208AF0001300310AF0DFF3E031DAB2B5D
:1027600003102F0D523E840083130008FF007F08E2
:10277000A3002E08B0000310300C0139FF007F08C1
:10278000A4003208B10001300310B10DFF3E031D5B
:10279000C42B0310310D513E840000080A168A1123
:1027A0009B200A168A11080083120313B001AE1F82
:1027B000DA2BDB2BE22BAD09AE09AD0A0319AE0A09
:1027C000B001B00AAC1FE52BE62BEB2BAB09AC0933
:1027D000AB0A0319AC0A2B082C040319F02BF12BBC
:1027E000202CAF01AF0AFF2B01300310AB0DAC0D55
:1027F000FF3E031DF52B0130FF007F08AF07AC1F24
:10280000022C032CF42B2C082E02031D092C2B0860
:102810002D02031C0C2C0D2C132C2B08AD022C08A4
:10282000031CAE03AE0201300310AC0CAB0CFF3E38
:10283000031D142C0130AF02031D1F2C202C032C70
:1028400030080319242C252C2A2CAD09AE09AD0A19
:102850000319AE0A2E08AC002D08AB000800831245
:102860000313B401B501B401B5010630FF007F08C0
:10287000A00034080A168A1536240A168A11BD3EAD
:102880008400831380010630FF007F088312031346
:10289000A00034080A168A1536240A168A11BE3E8C
:1028A0008400831380010630FF007F088312031326
:1028B000A00034080A168A1536240A168A11BF3E6B
:1028C000840083138001840A80010630FF007F08A2
:1028D00083120313A00034080A168A1536240A1638
:1028E0008A11C13E840083138001840A8001013073
:1028F00083120313B4070318B50A0030B50700307C
:102900003502023003193402031C872C882C352C25
:102910000A168A11DC220A168A1108008312031390
:10292000B401B501B401B5013408B200013003109F
:10293000B20DFF3E031D972C0310320D503E840054
:1029400083130008FF007F08A300A4013408B3002C
:1029500001300310B30DFF3E031DA92C0310330DEE
:102960004F3E840000080A168A11F5210A168A11C2
:10297000831203133408B20001300310B20DFF3E7E
:10298000031DBD2C0310320D523E8400831300083A
:10299000FF007F08A300A4013408B3000130031036
:1029A000B30DFF3E031DCF2C0310330D513E8400A9
:1029B00000080A168A11F5210A168A1101308312BD
:1029C0000313B4070318B50A0030B50734083504FB
:1029D0000319EB2CEC2C942C080083120313A70092
:1029E0000A168A1532230A168A11FB2C0A168A1532
:1029F00027230A168A11A0300A168A157B240A1684
:102A00008A11003A031D052D062DF62C831203139F
:102A100027080A168A157B240A168A110A168A15AF
:102A200032230A168A11A1300A168A157B240A1647
:102A30008A1183120313A801A9013B2D0A168A15D6
:102A4000AC240A168A11FF008312031328082307F7
:102A5000A500250884007F08831380000A168A15C4
:102A600088230A168A11013083120313A80703185A
:102A7000A90A0030A9072408A500A60126082902F2
:102A8000031D442D25082802031C472D482D1E2D0B
:102A90000A168A153D230A168A110800003083128F
:102AA0000313BC000030BB000030BA000030B90096
:102AB000330832043104300403195F2D602DAD2D2D
:102AC000BD01BD0A702D0130B8000310B00DB10D6D
:102AD000B20DB30DB80B652D0130FF007F08BD07A7
:102AE000B31F732D742D632D0130B8000310B90D81
:102AF000BA0DBB0DBC0DB80B762D33083702031D84
:102B00008B2D32083602031D8B2D31083502031D33
:102B10008B2D30083402031C8E2D8F2D9E2D3008F6
:102B2000B4023108031C310FB5023208031C320F06
:102B3000B6023308031C330FB702391401300310F7
:102B4000B30CB20CB10CB00CFF3E031D9F2D013035
:102B5000BD02031DAC2DAD2D742D3C08B3003B0808
:102B6000B2003A08B1003908B0000800831203131C
:102B7000A801A41FBC2DBD2DC42DA309A409A30A1F
:102B80000319A40AA801A80AA61FC72DC82DD12D74
:102B9000A509A609A50A0319A60A0130FF007F08A6
:102BA000A806A901AA01230824040319D82DD92DA8
:102BB000102EA701A70AE72D01300310A30DA40DC5
:102BC000FF3E031DDD2D0130FF007F08A707A41F76
:102BD000EA2DEB2DDC2D01300310A90DAA0DFF3ECF
:102BE000031DEC2D24082602031DF82D23082502C1
:102BF000031CFB2DFC2D032E2308A5022408031C17
:102C0000A603A602291401300310A40CA30CFF3E56
:102C1000031D042E0130A702031D0F2E102EEB2DD5
:102C200028080319142E152E1A2EA909AA09A90A73
:102C30000319AA0A2A08A4002908A300080083127D
:102C40000313B701B801B701B801B501B601B50169
:102C5000B6010E30FF007F08A00037080A168A155B
:102C600036240A168A11BA3E831203133507B400BC
:102C700034088400831780010130B5070318B60AB1
:102C80000030B607003036020A3003193502031C43
:102C90004A2E4B2E292E0E30FF007F08A000370849
:102CA0000A168A1536240A168A11C43E8400831730
:102CB00080010E30FF007F0883120313A000370845
:102CC0000A168A1536240A168A11C53E840083170F
:102CD00080010E30FF007F0883120313A000370825
:102CE0000A168A1536240A168A11C63E84008317EE
:102CF0008001840A8001013083120313B70703188F
:102D0000B80A0030B807370838040319882E892E0E
:102D1000252E0A128A1517220A168A110800831214
:102D20000313BA01BB01BA01BB013A08FF003A081C
:102D3000B90002300310B90DFF3E031D9A2E031097
:102D4000390DA03E84007F08831380003A08B90043
:102D500002300310B90DFF3E031DA92E0310390DDB
:102D6000A13E840080013A08B90002300310B90D79
:102D7000FF3E031DB62E0310390DA23E84008001D4
:102D80003A08B90002300310B90DFF3E031DC32EEF
:102D90000310390DA33E840080013A08B9000230C7
:102DA0000310B90DFF3E031DD02E0310390DA43EB4
:102DB00084008001840A80013A08B90002300310BF
:102DC000B90DFF3E031DDF2E0310390DA63E840012
:102DD0008001840A80010130BA070318BB0A003061
:102DE000BB0700303B02023003193A02031CF92EE4
:102DF000FA2E952E0A128A1567200A168A110800E3
:102E000083120313C2000D30FF007F08A0004208A8
:102E10000A168A1536240A168A11B83E84008313CE
:102E2000000883120313B000840A0008B100840A6A
:102E30000008B200840A0008B3000D30FF007F08CC
:102E4000A00042080A168A1536240A168A11B23ED4
:102E50008400831300080A168A1521240A168A1191
:102E6000831203132008BE002108BF00C001C10166
:102E70004108A6004008A5003F08A4003E08A300A2
:102E80000D30FF007F08A00042080A168A1536247C
:102E90000A168A11B43E84008313000883120313B8
:102EA000A700840A0008A800840A0008A900840A70
:102EB0000008AA000A168A1162210A168A118312D2
:102EC00003132608B7002508B6002408B500230818
:102ED000B4000A168A114E250A168A1183120313AA
:102EE00030080800F401F501F401F5010530FF0098
:102EF0007F08F00074080A168A15E2230A168A1160
:102F0000903E8400831700080319872F882FEA2F2B
:102F10000530FF007F08F00074080A168A15E223C6
:102F20000A168A11923E840083170008031D992F08
:102F30009A2FC92F0530FF007F08F00074080A1689
:102F40008A15E2230A168A11943E84000130FF009C
:102F50007F08831780000530FF007F08F0007408A9
:102F60000A168A15E2230A168A11933E84008317F3
:102F70000008F3000530FF007F08F00074080A160F
:102F80008A15E2230A168A11923E84007308831779
:102F900080000530FF007F08F00074080A168A15CB
:102FA000E2230A168A11923E84008317000803194F
:102FB000DA2FDB2FEA2F0530FF007F08F0007408BE
:102FC0000A168A15E2230A168A11923E84000130FD
:102FD000831780020130F4070318F50A0030F50763
:102FE00000307502083003197402031CF82FF92F02
:102FF000762F0130FF007F0883160317B900080001
:1036160064008001840A04060319003404060C2B96
:103626003F3406345B344F3466346D347D340734AE
:103636007F346F34053400340634003407340034E4
:1036460008340034093400340A168A156B230A1626
:103656008A158316031311080238910008000A160A
:103666008A156B230A168A15831603131108013867
:10367600910008000A168A156B230A168A15831606
:1036860003131108043891000800831203131F085E
:1036960041389F00831603131F08C0389F00080097
:1036A60083120313A1002008FF002108533E840063
:1036B6007F08831380000800053083120313A600D9
:1036C6000030A7000A168A1529250A168A15080049
:1036D600831603131419702B712B6B2B11081F39CA
:1036E600031D762B772B6B2B08008316031311080B
:1036F600203891000A168A156B230A168A15831636
:1037060003131108103891000800831603131108DB
:10371600DF3991000A168A156B230A168A15831655
:103726000313110810389100080083120313A30035
:103736000E30FF007F08A00023080A168A153624DB
:103746000A168A15C63E84008317000808008316E9
:1037560003173903031DB02BB12BB52B0130FF0026
:103766007F08B80038080A128A11E1270A168A1556
:103776000800831203138F018E0101309000210887
:103786009600200895000B3097000430831603132B
:103796008C0040308B0008007E088A007F0882007B
:1037A6000A168A15CF230A168A158000840A040889
:1037B6007D0603190034FF0A0319FE0AD32BF20013
:1037C600F101721CE72BE82BEC2B7008FF007F0839
:1037D600F1070310F00D0310F20C7208031DF42B11
:1037E600F52BE42B710808000C08FB398C000A162F
:1037F6008A1172270A168A15790883120313FF00A5
:1038060078088A0077088400760E8300FE0E7E0E06
:10381600090083120313B3003108FF003308B20016
:1038260002300310B20DFF3E031D142C0310320D9F
:10383600A13E84007F0883138000080083120313CF
:103846001F0810389F001F0804389F001F192C2CD2
:103856002D2C292C1E08A100831603131E08831283
:103866000313A000080083120313A200A101221C67
:103876003D2C3E2C422C2008FF007F08A107031098
:10388600A00D0310A20C2208031D4A2C4B2C3A2C27
:1038960021080800831603173903031D532C542CE3
:1038A6005B2CB9015B2C0A128A1103200A168A15B1
:1038B6008316031739080319612C622C562CB9019B
:1038C600080083120313A3002008FF002308A200A8
:1038D6002207D23E84007F08831380002108FF0060
:1038E6002308A2002207D33E84007F088000080038
:1038F60083120313A0000A168A156B230A168A156B
:1039060083120313200893008C1D8A2C8B2C872C82
:103916000C08F7398C008316031311084039080088
:1039260083120313A9002908A7002707D33E8400A2
:1039360083130008FF007F08A0002908A8002807B5
:10394600D23E840000080A168A1509260A168A1528
:1039560008000A168A156B230A168A15831603139E
:1039660011080838910083128C1DBA2CBB2CB62C7A
:103976000C08F7398C000A168A156B230A168A1565
:10398600831203131308080083120313B601B70149
:10399600B601B7013608533E840083138001013017
:1039A600B6070318B70A0030B707360837040319F5
:1039B600DD2CDE2CCD2C0A168A118E240A168A15C9
:1039C600080083120313A401A501A401A50124087C
:1039D6000A128A1500200A168A150130831203136B
:1039E600A4070318A50A0030A507003025020830F1
:1039F60003192402031C002D012DEA2C831603173C
:103A0600B801B901080083120313C401C501C4013A
:103A1600C5014408533E840083130008FF007F0855
:103A2600AE0044080A168A117B230A168A1501304D
:103A360083120313C4070318C50A0030C5074408D8
:103A460045040319272D282D0C2D08008312031376
:103A56002708A1002608A000A030A2000F30A3006E
:103A66000A168A1100200A168A15831203132008E3
:103A7600FF3EA80021080318013EFF3EA9002908C1
:103A8600A1002808A0000A168A15BC230A168A1562
:103A96008B17080083120313A3002008FF002308D6
:103AA600A20001300310A20DFF3E031D552D031089
:103AB600220DDE3E84007F08831380002108FF006C
:103AC6002308A20001300310A20DFF3E031D662D40
:103AD6000310220DDF3E84007F0880000800831259
:103AE6000313A3002008FF002308A20001300310DF
:103AF600A20DFF3E031D7A2D0310220DE03E840029
:103B06007F08831380002108FF002308A2000130EC
:103B16000310A20DFF3E031D8B2D0310220DE13E67
:103B260084007F088000080083120313A300200886
:103B3600FF002308A20001300310A20DFF3E031D63
:103B46009F2D0310220D513E84007F0883138000B1
:103B56002108FF002308A20001300310A20DFF3E3A
:103B6600031DB02D0310220D523E84007F088000F5
:103B7600080083120313A3002008FF002308A200F5
:103B860001300310A20DFF3E031DC42D0310220DAC
:103B96004F3E84007F08831380002108FF0023081E
:103BA600A20001300310A20DFF3E031DD52D031008
:103BB600220D503E84007F08800008008312031304
:103BC600A4000330FF007F08A00024080A168A1507
:103BD60036240A168A15CB3E840083130008FF009C
:103BE6007F0883120313A3000330FF007F08A000A1
:103BF60024080A168A1536240A168A15CB3E84002E
:103C0600831380018312031323080800831203130E
:103C1600A6002608A1002107E63E840083130008BB
:103C2600A200840A0008A300220884008317231C2C
:103C360083130130A400200A222E0310A40DFF3E98
:103C4600031D202E24080005A500200A2C2E031093
:103C5600A50CFF3E031D2A2E250808008316031314
:103C6600940183120313140828389400831603134F
:103C76009101831203134108B3004008B2003F08C4
:103C8600B1003E08B0000030B7003D30B600093044
:103C9600B5000030B4000A168A114E250A168A1598
:103CA600831203133008FF3E8316031393000800A4
:103CB60083120313A5000330FF007F08A000250828
:103CC6000A168A1536240A168A15D83E84008312E7
:103CD60003132308FF007F08831380000330FF00CF
:103CE6007F08A00025080A168A1536240A168A15A2
:103CF600D93E8400831203132408FF007F08831330
:103D06008000080083120313A5000D30FF007F0812
:103D1600A00025080A168A1536240A168A15B03E0A
:103D26008400831203132308FF007F088313800097
:103D36000D30FF007F08A00025080A168A153624D4
:103D46000A168A15B13E8400831203132408FF0065
:103D56007F0883138000080083120313B100310823
:103D6600AF0001300310AF0DFF3E031DB52E03104B
:103D76002F0DDF3E840083130008FF007F08A30099
:103D86002E08FF007F08A4003108B00001300310A0
:103D9600B00DFF3E031DCA2E0310300DDE3E84001B
:103DA60000080A168A119B200A168A150800003098
:103DB60083120313C1000130C0008630BF00A0305B
:103DC600BE000A168A1531260A168A150430FF0027
:103DD6007F0883120313A300A401A40A02300A1663
:103DE6008A11F5210A168A150330FF007F0883120F
:103DF6000313A300A401A40A02300A168A11F521AE
:103E06000A168A15080083120313A9002008210543
:103E1600A2002908A3002307E63E840083130008B6
:103E2600A400840A0008A500240884008317251C22
:103E36008313200900052204FF002908A60026078F
:103E4600E63E840083130008A700840A0008A80041
:103E5600270884008317281C83137F088000080026
:103E660083120313A4000A168A1532230A168A152A
:103E7600412F0A168A1527230A168A15A0300A1614
:103E86008A157B240A168A15003A031D4B2F4C2FE0
:103E96003C2F8312031324080A168A157B240A165C
:103EA6008A158312031323080A168A157B240A1619
:103EB6008A150A168A153D230A168A1508008312E2
:103EC6000313B401B501B401B5013408B2003207D9
:103ED600D33E840083130008FF007F08A300A401DB
:103EE600A40A3408B3003307D23E840000080A1639
:103EF6008A11F5210A168A15013083120313B407B5
:103F06000318B50A0030B50700303502033003192F
:103F16003402031C8F2F902F682F0800831203137F
:103F2600AE002A08FF002E08AD0002300310AD0DCA
:103F3600FF3E031D992F03102D0DA23E84007F081E
:103F4600831380000530A3000030A4002C08A600CF
:103F56002B08A5000A168A111C210A168A15831237
:103F660003132E08AD0002300310AD0DFF3E031DF6
:103F7600B72F03102D0DA43E840023088313800061
:103F8600840A240880000800D32F0430FF007F082D
:103F9600A8000130A802280A031DD22FD32FCC2F48
:103FA600013083120313A4000030A5000030A600E0
:103FB6000030A7002408A0022508031C250FE42FC3
:103FC600E52FA1022608031C260FEA2FEB2FA202DB
:103FD6002708031C270FF02FF12FA302200A031D29
:103FE600FE2F210A031DFE2F220A031DFE2F230A80
:0A3FF600031DFE2FFF2FC82F080047
:02400E003A3F37
:00000001FF
