:020000040000FA
:100000000A128A1112280800FE00030EF6000408E6
:10001000F7000A08F800831203137F08F9000A1694
:100020008A15D3280A128A1115288317C130FD00BA
:100030001830FE002030FF00B73084000A168A1501
:10004000AF200A128A1183136630FD001830FE00BB
:100050002A30FF005C3084000A168A15AF200A128D
:100060008A11831790308400B7300A168A15182039
:100070000A128A11103084004E300A168A15182090
:100080000A128A118313A0308400E8300A168A15F8
:1000900018200A128A11E601E701E801E901EA01E4
:1000A00083010A128A117C2EFF0000308A007F082B
:1000B000820759280A168A11572F0A168A11B22E5A
:1000C0000A128A116C280A168A15E4290A128A155E
:1000D000F4280A128A159D2B831203134D08FF0082
:1000E0007F08D500532E1F30FF007F08A000550861
:1000F0000A168A15FD200A128A11C93E840083134C
:1001000000080A168A1556220A128A11013A031D9E
:100110008A288B287B2E1F30FF007F088312031351
:10012000A00055080A168A15FD200A128A11D13E30
:10013000840083138001800A7B2E1F30FF007F081C
:10014000A00055080A168A15FD200A128A11CC3E15
:100150008400831300080A168A1599200A128A114E
:1001600083120313CF001F30FF007F08A000550843
:100170000A168A15FD200A128A11D33E84008312C2
:1001800003134F08831380001F30FF007F08A00077
:1001900055080A168A15FD200A128A11D43E8400D9
:1001A00083130008FB3E83120313CF00FF300318B4
:1001B0000030D0001F30FF007F08A00055080A164D
:1001C0008A15FD200A128A11D33E8400831203137C
:1001D0005008803AD10080305102031DF228831369
:1001E00000084F02031CF528F6282F291F30FF00B6
:1001F0007F0883120313A00055080A168A15FD20F4
:100200000A128A11CD3E840083130008FF007F0884
:1002100083120313D200A301A30A52080A168A15F7
:100220002B210A128A1183120313A701A70AE830AF
:10023000A8000330A9001F30FF007F08A000550868
:100240000A168A15FD200A128A11CE3E84008313F5
:1002500000080A168A1501260A128A119A291F30E7
:10026000FF007F0883120313A00055080A168A15A1
:10027000FD200A128A11D43E840083130008053E33
:1002800083120313CF00003003180130D0001F3059
:10029000FF007F08A00055080A168A15FD200A12E3
:1002A0008A11D33E8400831203135008803A803CA5
:1002B000031D5D294F0883130002031C6029612977
:1002C0009A291F30FF007F0883120313A0005508EE
:1002D0000A168A15FD200A128A11CD3E8400831366
:1002E0000008FF007F0883120313D2000230FF00D2
:1002F0007F08A30052080A168A152B210A128A11B8
:1003000083120313A701A70A0030A800A9001F3019
:10031000FF007F08A00055080A168A15FD200A1262
:100320008A11CE3E8400831300080A168A1501261E
:100330000A128A111F30FF007F0883120313A000E6
:1003400055080A168A15FD200A128A11D23E840029
:10035000033083130006031DAE29AF29C3291F30C4
:10036000FF007F0883120313A00055080A168A15A0
:10037000FD200A128A11D13E84000330FF007F085D
:10038000831380007B2E1F30FF007F08831203132E
:10039000A00055080A168A15FD200A128A11D13EBE
:1003A00084000230FF007F08831380007B2E1F3003
:1003B000FF007F08A00055080A168A15FD200A12C2
:1003C0008A11D13E84008313000883120313CF00E7
:1003D0001F30FF007F08A00055080A168A15FD206F
:1003E0000A128A11D23E8400831203134F0883132A
:1003F00080001F30FF007F08A00055080A168A15EC
:10040000FD200A128A11CF3E840083130008FF00EA
:100410007F0883120313D400A701A70A0030A800A5
:10042000A90054080A168A15BE230A128A111F3021
:10043000FF007F0883120313A00055080A168A15CF
:10044000FD200A128A11D03E840083130008FF00A9
:100450007F0883120313D400A701A70A0030A80065
:10046000A90054080A168A15BE230A128A110A30F6
:1004700083120313AB000030AC001F30FF007F0875
:10048000A00055080A168A15FD200A128A11D33ECB
:1004900084008313000883120313CF00D0014F0898
:1004A000AD005008AE000A168A1547270A128A11B5
:1004B000831203132B08FF007F08D3005308FF00AB
:1004C0007F08B1001F30FF007F08A00055080A1602
:1004D0008A15FD200A128A11CF3E8400831300087A
:1004E0000A168A1514210A128A110A30831203137C
:1004F000AB000030AC000A30A3000030A4001F3075
:10050000FF007F08A00055080A168A15FD200A1270
:100510008A11D33E84008313000883120313CF0093
:10052000D0014F08A5005008A6000A168A116522BE
:100530000A128A11831203132408AE002308AD00A7
:100540000A168A1547270A128A11831203132B08E9
:10055000FF007F08D3005308FF007F08B1001F3061
:10056000FF007F08A00055080A168A15FD200A1210
:100570008A11D03E8400831300080A168A151421BC
:100580000A128A111F30FF007F0883120313A00094
:1005900055080A168A15FD200A128A11CA3E8400DF
:1005A000831300080A168A1556220A128A11003A85
:1005B000031DDB2ADC2AF62A1F30FF007F08831286
:1005C0000313A00055080A168A15FD200A128A1185
:1005D000CB3E8400831300080A168A1556220A129D
:1005E0008A11003A0319F52AF62A0A2B1F30FF0058
:1005F0007F0883120313A00055080A168A15FD20F0
:100600000A128A11D13E84000330FF007F08831351
:1006100080007B2E1F30FF007F0883120313A00091
:1006200055080A168A15FD200A128A11C93E84004F
:10063000831300080A168A1556220A128A11003AF4
:100640000319232B242B382B1F30FF007F08831224
:100650000313A00055080A168A15FD200A128A11F4
:10066000D13E84000430FF007F08831380007B2E7E
:100670001F30FF007F0883120313A00055080A16DD
:100680008A15FD200A128A11D13E8400831380014D
:10069000800A7B2E1F30FF007F08A00055080A1635
:1006A0008A15FD200A128A11D13E840083130008A6
:1006B00083120313CF001F30FF007F08A0005508EE
:1006C0000A168A15FD200A128A11D23E840083126E
:1006D00003134F08831380001F30FF007F08A00022
:1006E00055080A168A15FD200A128A11CF3E840089
:1006F00083130008FF007F0883120313D400A701AF
:10070000A70AE830A8000330A90054080A168A1581
:10071000BE230A128A111F30FF007F0883120313C1
:10072000A00055080A168A15FD200A128A11D03E2B
:10073000840083130008FF007F0883120313D40092
:10074000A701A70AE830A8000330A90054080A1638
:100750008A15BE230A128A110A3083120313AB00D2
:100760000030AC001F30FF007F08A00055080A16BB
:100770008A15FD200A128A11D43E840083130008D2
:1007800083120313CF00D0014F08AD005008AE0014
:100790000A168A1547270A128A11831203132B0897
:1007A000FF007F08D3005308FF007F08B1001F300F
:1007B000FF007F08A00055080A168A15FD200A12BE
:1007C0008A11CF3E8400831300080A168A1514216B
:1007D0000A128A110A3083120313AB000030AC00F6
:1007E0000A30A3000030A4001F30FF007F08A000E3
:1007F00055080A168A15FD200A128A11D43E840073
:100800008313000883120313CF00D0014F08A50003
:100810005008A6000A168A1165220A128A1183124C
:1008200003132408AE002308AD000A168A154727D3
:100830000A128A11831203132B08FF007F08D300CA
:100840005308FF007F08B1001F30FF007F08A000A1
:1008500055080A168A15FD200A128A11D03E840016
:10086000831300080A168A1514210A128A111F30F0
:10087000FF007F0883120313A00055080A168A158B
:10088000FD200A128A11CB3E8400831300080A1649
:100890008A1556220A128A11003A0319502C512C3B
:1008A0008B2C1F30FF007F0883120313A000550814
:1008B0000A168A15FD200A128A11D43E8400473098
:1008C000831300020318652C662C8B2C1F30FF004D
:1008D0007F0883120313A00055080A168A15FD200D
:1008E0000A128A11D43E84000530FF007F0883136A
:1008F00080071F30FF007F0883120313A0005508F4
:100900000A168A15FD200A128A11D53E8400831327
:100910008001840A80011F30FF007F0883120313C7
:10092000A00055080A168A15FD200A128A11CA3E2F
:100930008400831300080A168A1556220A128A11A7
:10094000003A0319A42CA52CDD2C1F30FF007F08D2
:1009500083120313A00055080A168A15FD200A12F7
:100960008A11D43E8400283083130002031CB92C62
:10097000BA2CDD2C1F30FF007F0883120313A00068
:1009800055080A168A15FD200A128A11D43E8400E1
:100990000530831380021F30FF007F08831203138A
:1009A000A00055080A168A15FD200A128A11D53EA4
:1009B000840083138001840A80011F30FF007F08B8
:1009C00083120313A00055080A168A15FD200A1287
:1009D0008A11C93E8400831300080A168A1556221C
:1009E0000A128A11003A0319F62CF72C0B2D1F302E
:1009F000FF007F0883120313A00055080A168A150A
:100A0000FD200A128A11D13E84000430FF007F08C5
:100A1000831380001C2D1F30FF007F0883120313F7
:100A2000A00055080A168A15FD200A128A11D13E27
:100A3000840083138001800A1F30FF007F08831227
:100A40000313A00055080A168A15FD200A128A1100
:100A5000D53E84008313000883120313CF000130B6
:100A60008007840A0008D00000300318800A80073D
:100A700000305002193003194F02031C402D412D44
:100A80007B2E1F30FF007F08A00055080A168A152C
:100A9000FD200A128A11D53E840083138001840A46
:100AA00080011F30FF007F0883120313A000550848
:100AB0000A168A15FD200A128A11D43E8400831377
:100AC0000008FF007F0883120313A30008300A16F2
:100AD0008A1556230A128A111F30FF007F088312DD
:100AE0000313A00055080A168A15FD200A128A1160
:100AF000D13E84000230FF007F08831380007B2EEC
:100B00001F30FF007F08A00055080A168A15FD2037
:100B10000A128A11CD3E840083130008FF007F086B
:100B200083120313D200A30152080A168A152B213F
:100B30000A128A1183120313A7010030A800A9002A
:100B40001F30FF007F08A00055080A168A15FD20F7
:100B50000A128A11CE3E8400831300080A168A15F1
:100B600001260A128A111F30FF007F088312031327
:100B7000A00055080A168A15FD200A128A11CF3ED8
:100B8000840083130008FF007F0883120313D4003E
:100B9000A7010030A800A90054080A168A15BE2330
:100BA0000A128A111F30FF007F0883120313A0006E
:100BB00055080A168A15FD200A128A11D03E8400B3
:100BC00083130008FF007F0883120313D400A701DA
:100BD0000030A800A90054080A168A15BE230A127C
:100BE0008A111F30FF007F0883120313A0005508ED
:100BF0000A168A15FD200A128A11D43E8400831336
:100C00000008FF007F0883120313A30008300A16B0
:100C10008A1556230A128A111F30FF007F0883129B
:100C20000313A00055080A168A15FD200A128A111E
:100C3000D53E840083138001840A80011F30FF00A9
:100C40007F0883120313A00055080A168A15FD2099
:100C50000A128A11D13E8400831380011F30FF00E5
:100C60007F0883120313A00055080A168A15FD2079
:100C70000A128A11D13E84008313000883120313E1
:100C8000CF001F30FF007F08A00055080A168A1504
:100C9000FD200A128A11D23E8400831203134F08EA
:100CA000831380007B2E1F30FF007F08A0005508B3
:100CB0000A168A15FD200A128A11D13E8400831378
:100CC000000883120313CF00D0015008003A031923
:100CD0006A2E7B2E4F08003A03197328013A031934
:100CE0009D28033A0319D729013A03194A2B073AD9
:100CF0000319802D7B2E080083120313B401B40A5C
:100D0000B50100300A168A1112200A128A118312C4
:100D10000313B401B40AB501B50A01300A168A11E9
:100D200012200A128A1183120313B401B40A02308A
:100D3000FF007F08B50002300A168A1112200A123D
:100D40008A1183120313B4010230FF007F08B5003B
:100D5000B601B70100300A128A15B6210A128A11AB
:100D60000230FF007F0883120313B4000530FF0038
:100D70007F08B5000230FF007F08B6000230FF0098
:100D80007F08B70000300A168A1197210A128A11CB
:100D900083120313B601B60A0730FF007F08B700BD
:100DA00000300A168A1134210A128A1183120313A1
:100DB000B601B60A0630FF007F08B70001300A16F8
:100DC0008A1134210A128A1183120313B6010530E5
:100DD000FF007F08B7000330FF007F08B800B901AB
:100DE00000300A128A1537200A128A11831203135F
:100DF000B6010430FF007F08B7000330FF007F0812
:100E0000B800B90101300A128A1537200A128A1176
:100E100083120313C501C601C60A0230FF007F0812
:100E2000C700C801C901CA01CA0ACB01CC01CC0A5A
:100E300000300A128A15F2240A128A110030831235
:100E40000313A3000030A2000330A100E830A0008B
:100E50000A168A1585230A128A110A168A15C221D2
:100E60000A128A11003083120313A3000030A40079
:100E7000A5010230FF007F08A60004300A168A117F
:100E80008D250A128A11013083120313A30000304A
:100E9000A400A5010230FF007F08A60004300A1656
:100EA0008A118D250A128A11023083120313A300BE
:100EB0000030A400A5010230FF007F08A600043026
:100EC0000A168A118D250A128A1100308312031323
:100ED000A3000030A400A5011430FF007F08A60085
:100EE00001300A168A118D250A128A1100308312E8
:100EF0000313A3000030A400A501A50A1430FF00CD
:100F00007F08A60007300A168A118D250A128A1159
:100F1000003083120313A3000030A400A501A50A2A
:100F20001430FF007F08A6000A300A168A118D25AA
:100F30000A128A11003083120313A3000030A400A8
:100F4000A501A50A1430FF007F08A6000D300A167F
:100F50008A118D250A128A11013083120313A3000E
:100F60000030A400A501A50A1430FF007F08A600E8
:100F70000D300A168A118D250A128A11003083124B
:100F80000313A3000030A400A501A50AA601A60A28
:100F900010300A168A118D250A128A110130831227
:100FA0000313A3000030A400A501A50AA601A60A08
:100FB00010300A168A118D250A128A110A168A150E
:100FC00060200A128A110A168A111E260A128A1134
:100FD000E32F0A128A11122883120313AC01350879
:100FE000AE003408AD00AF010B30FF007F08B00049
:100FF00001300A168A156D240A128A118B1708000F
:10100E00003083120313C4000130C3008630C200C7
:10101E00A030C1000A168A15A6220A128A150330BC
:10102E00FF007F0883120313A300A401A40AA501E5
:10103E00A50A02300A168A11A2230A128A15043052
:10104E00FF007F0883120313A300A401A40AA501C5
:10105E00A50A02300A168A11A2230A128A1508005E
:10106E0083120313BA000C30FF007F08A0003A0869
:10107E000A168A15FD200A128A159F3E84008312D5
:10108E0003133608FF007F08831780000C30FF0023
:10109E007F08A0003A080A168A15FD200A128A1542
:1010AE00A03E8400831203133708FF007F088317C6
:1010BE0080000C30FF007F08A0003A080A168A153F
:1010CE00FD200A128A15A13E8400831203133808EC
:1010DE00FF007F08831780000C30FF007F08A00000
:1010EE003A080A168A15FD200A128A15A23E8400B5
:1010FE00831203133908FF007F08831780000C301A
:10110E00FF007F08A0003A080A168A15FD200A1271
:10111E008A15A33E8400831203133A08FF007F084A
:10112E00831780000C30FF007F08A0003A080A16D3
:10113E008A15FD200A128A15A43E840083178001A9
:10114E000C30FF007F0883120313A0003A080A1622
:10115E008A15FD200A128A15A53E84008317800188
:10116E000C30FF007F0883120313A0003A080A1602
:10117E008A15FD200A128A15A63E84008317800167
:10118E000C30FF007F0883120313A0003A080A16E2
:10119E008A15FD200A128A15A73E84008317800146
:1011AE00840A80010C30FF007F0883120313A00015
:1011BE003A080A168A15FD200A128A15A93E8400DD
:1011CE0083178001840A8001831203133A080A16DA
:1011DE008A110E240A128A150800831203134D0871
:1011EE00FF007F08D3005308CF0002300310CF0D4D
:1011FE00FF3E031DFD2803104F0DBF3E84008313D9
:10120E000008D000840A0008D100500851040319C8
:10121E001129122927295308CF0002300310CF0DB0
:10122E00FF3E031D152903104F0DBF3E84000130F4
:10123E008002840F0030031C8003800284038A29FD
:10124E005308CF0002300310CF0DFF3E031D2A2995
:10125E0003104F0DBD3E84000008D000840A000824
:10126E00D1005008510403193D293E297D29530808
:10127E00CF0002300310CF0DFF3E031D4129031096
:10128E004F0DBB3E84000008FF005308D000023013
:10129E000310D00DFF3E031D4F290310500DBC3E11
:1012AE0084007F0880065308CF0002300310CF0D54
:1012BE00FF3E031D5D2903104F0DBD3E8400000847
:1012CE00D000840A0008D1005308D2000230031067
:1012DE00D20DFF3E031D6E290310520DBF3E84003A
:1012EE0050088000840A510880008A295308CF00D4
:1012FE0002300310CF0DFF3E031D802903104F0D4A
:10130E00BC3E840080015308CF0002300310CF0D85
:10131E00FF3E031D8D2903104F0DBB3E84000008B8
:10132E00D0005308D10002300310D10DFF3E031D33
:10133E009B290310510DBC3E840000080319A829F7
:10134E00AA290130AB2900305005FF007F08AE00FE
:10135E0053080A168A1597260A128A150800831250
:10136E000313BB001930FF007F08A0003B080A16CC
:10137E008A15FD200A128A15A03E840083120313DB
:10138E003408FF007F08831380001930FF007F08A8
:10139E00A0003B080A168A15FD200A128A15A13EE6
:1013AE008400831203133508FF007F088313800027
:1013BE001930FF007F08A0003B080A168A15FD2091
:1013CE000A128A15A23E8400831203133608FF0008
:1013DE007F08831380001930FF007F08A0003B08B0
:1013EE000A168A15FD200A128A15A33E840083125E
:1013FE0003133708FF007F08831380001930FF00A6
:10140E007F08A0003B080A168A15FD200A128A15CD
:10141E00A43E8400593083138000840A7330800008
:10142E00840A07308000840A003080001930FF00E3
:10143E007F0883120313A0003B080A168A15FD20AD
:10144E000A128A15A83E8400403083138000840A55
:10145E0042308000840A0F308000840A0030800001
:10146E0083120313B901BA011930FF007F08A000DF
:10147E003B080A168A15FD200A128A15AC3E831205
:10148E0003133907B8003808840083138001013034
:10149E00B9070318BA0A0030BA0700303A020A3008
:1014AE0003193902031C5C2A5D2A3B2A1930FF00FE
:1014BE007F08A0003B080A168A15FD200A128A151D
:1014CE00B63E8400831380011930FF007F0883121B
:1014DE000313A0003B080A168A15FD200A128A156E
:1014EE00B73E8400831380011930FF007F088312FA
:1014FE000313A0003B080A168A15FD200A128A154E
:10150E00B83E840083138001831203133B080A162E
:10151E008A15EC240A128A15080083120313AF00F1
:10152E002E08031D9B2A9C2AED2A0530FF007F08FA
:10153E00A0002F080A168A15FD200A128A15673E8A
:10154E00840083130008FF007F0883120313A30097
:10155E00A4010530FF007F08A0002F080A168A1587
:10156E00FD200A128A15663E8400831300080A16AF
:10157E008A15AB240A128A150530FF007F088312E4
:10158E000313A0002F080A168A15FD200A128A15C9
:10159E00693E840083130008FF007F088312031343
:1015AE00A300A4010530FF007F08A0002F080A1633
:1015BE008A15FD200A128A15683E840083130008DE
:1015CE000A168A15AB240A128A159C2B2E03031DAC
:1015DE00F12AF22A442B0530FF007F08A0002F08C5
:1015EE000A168A15FD200A128A15673E8400831397
:1015FE000008FF007F0883120313A300A401A40AAE
:10160E000530FF007F08A0002F080A168A15FD205E
:10161E000A128A15663E8400831300080A168A157C
:10162E00AB240A128A150530FF007F0883120313BC
:10163E00A0002F080A168A15FD200A128A15693E87
:10164E00840083130008FF007F0883120313A30096
:10165E00A4010530FF007F08A0002F080A168A1586
:10166E00FD200A128A15683E8400831300080A16AC
:10167E008A15AB240A128A159C2B02302E06031DE6
:10168E00492B4A2B9C2B0530FF007F08A0002F080A
:10169E000A168A15FD200A128A15673E84008313E6
:1016AE000008FF007F0883120313A300A401053076
:1016BE00FF007F08A0002F080A168A15FD200A12C7
:1016CE008A15663E8400831300080A168A15AB2419
:1016DE000A128A150530FF007F0883120313A0003B
:1016EE002F080A168A15FD200A128A15693E8400F3
:1016FE0083130008FF007F0883120313A300A401C5
:10170E00A40A0530FF007F08A0002F080A168A15CC
:10171E00FD200A128A15683E8400831300080A16FB
:10172E008A15AB240A128A159C2B08008312031308
:10173E004D08FF007F08D3000C30FF007F08A0008B
:10174E0053080A168A15FD200A128A15A93E84002E
:10175E008317000883120313CF00840A0008D000F9
:10176E004F0850040319BC2BBD2BD32B0C30FF009C
:10177E007F08A00053080A168A15FD200A128A1542
:10178E00A93E8400013083178002840F0030031CB1
:10179E00800380028403462C0C30FF007F08A000DB
:1017AE0053080A168A15FD200A128A15A73E8400D0
:1017BE008317000883120313CF00840A0008D00099
:1017CE004F0850040319EC2BED2B382C0C30FF0076
:1017DE007F08A00053080A168A15FD200A128A15E2
:1017EE00A53E84008317000883120313CF000C302C
:1017FE00FF007F08A00053080A168A15FD200A1262
:10180E008A15A63E8400831203134F0883178006A1
:10181E000C30FF007F08A00053080A168A15FD2021
:10182E000A128A15A73E8400831700088312031339
:10183E00CF00840A0008D0000C30FF007F08A00003
:10184E0053080A168A15FD200A128A15A93E84002D
:10185E00831203134F0883178000840A50088000F8
:10186E00462C0C30FF007F08A00053080A168A157C
:10187E00FD200A128A15A63E84008317800183126A
:10188E000313AE0153080A168A15A2270A128A15E7
:10189E000C30FF007F0883120313A00053080A16B2
:1018AE008A15FD200A128A15A33E840083170008AC
:1018BE00031D622C632CB92C0C30FF007F088312A1
:1018CE000313A00053080A168A15FD200A128A1562
:1018DE00A43E840083170008FF007F0883120313C1
:1018EE00D1005108FF007F08AC0053080A168A1574
:1018FE00F8230A128A150C30FF007F088312031397
:10190E00A00053080A168A15FD200A128A15A53E54
:10191E0084008317000883120313CF000C30FF00DE
:10192E007F08A00053080A168A15FD200A128A1590
:10193E00A63E8400831700080319A62CA82C01309C
:10194E00A92C0030831203134F05FF007F08D2002D
:10195E005208FF007F08AE0053080A168A15A22708
:10196E000A128A150C30FF007F0883120313A000A1
:10197E0053080A168A15FD200A128A15A33E840002
:10198E000130FF007F08831780070C30FF007F08AF
:10199E0083120313A00053080A168A15FD200A129B
:1019AE008A15A33E8400023083170006031DE02C27
:1019BE00E12CF12C0C30FF007F0883120313A000E2
:1019CE0053080A168A15FD200A128A15A33E8400B2
:1019DE0083178001080083120313D2000A128A159E
:1019EE0007200A128A151F30FF007F088312031387
:1019FE00A00052080A168A15FD200A128A15C93E41
:101A0E008400831203134508FF007F0883138000B0
:101A1E001F30FF007F08A00052080A168A15FD200D
:101A2E000A128A15CA3E8400831203134608FF0069
:101A3E007F08831380001F30FF007F08A00052082C
:101A4E000A168A15FD200A128A15CB3E84008312CF
:101A5E0003134708FF007F08831380001F30FF0029
:101A6E007F08A00052080A168A15FD200A128A1550
:101A7E00CC3E8400831203134808FF007F088313B3
:101A8E0080001F30FF007F08A00052080A168A153A
:101A9E00FD200A128A15CD3E8400831203134908D5
:101AAE00FF007F08831380001F30FF007F08A00017
:101ABE0052080A168A15FD200A128A15CE3E840097
:101ACE00831203134A08FF007F08831380001F3020
:101ADE00FF007F08A00052080A168A15FD200A1280
:101AEE008A15CF3E8400831203134B08FF007F0834
:101AFE00831380001F30FF007F08A00052080A16D3
:101B0E008A15FD200A128A15D03E84008312031313
:101B1E004C08FF007F08831380001F30FF007F08F2
:101B2E00A00052080A168A15FD200A128A15D13E07
:101B3E008400831380011F30FF007F08831203137C
:101B4E00A00052080A168A15FD200A128A15D13EE7
:101B5E0084008313000883120313CD001F30FF008F
:101B6E007F08A00052080A168A15FD200A128A154F
:101B7E00D23E8400831203134D08831380001F305E
:101B8E00FF007F08A00052080A168A15FD200A12CF
:101B9E008A15D33E8400831380011F30FF007F0817
:101BAE0083120313A00052080A168A15FD200A128A
:101BBE008A15D43E84003C30FF007F0883138000DA
:101BCE001F30FF007F0883120313A00052080A166D
:101BDE008A15FD200A128A15D53E840083138001D2
:101BEE00840A80011F30FF007F0883120313A000B8
:101BFE0052080A168A15FD200A128A15D73E84004D
:101C0E0083138001800A1F30FF007F0883120313A5
:101C1E00A00052080A168A15FD200A128A15D83E0F
:101C2E0084002330FF007F08831380001F30FF00E5
:101C3E007F0883120313A00052080A168A15FD208E
:101C4E000A128A15D93E84005030FF007F08831394
:101C5E0080001F30FF007F0883120313A00052087C
:101C6E000A168A15FD200A128A15DA3E840077308C
:101C7E00FF007F08831380001F30FF007F08831250
:101C8E000313A00052080A168A15FD200A128A159F
:101C9E00DB3E84007230FF007F08831380001F300C
:101CAE00FF007F0883120313A00052080A168A153C
:101CBE00FD200A128A15DC3E84005530FF007F0895
:101CCE00831380001F30FF007F0883120313A000D0
:101CDE0052080A168A15FD200A128A15DD3E840066
:101CEE007030FF007F08831380001F30FF007F08D5
:101CFE0083120313A00052080A168A15FD200A1239
:101D0E008A15DE3E84005F30FF007F08831380005B
:101D1E001F30FF007F0883120313A00052080A161B
:101D2E008A15FD200A128A15DF3E84003130FF002D
:101D3E007F08831380001F30FF007F088312031378
:101D4E00A00052080A168A15FD200A128A15E03ED6
:101D5E008400831380011F30FF007F08831203135A
:101D6E00A00052080A168A15FD200A128A15E13EB5
:101D7E008400831380011F30FF007F08831203133A
:101D8E00A00052080A168A15FD200A128A15E23E94
:101D9E008400831380011F30FF007F08831203131A
:101DAE00A00052080A168A15FD200A128A15E33E73
:101DBE008400831380011F30FF007F0883120313FA
:101DCE00A00052080A168A15FD200A128A15E43E52
:101DDE008400831380011F30FF007F0883120313DA
:101DEE00A00052080A168A15FD200A128A15E53E31
:101DFE008400831380011F30FF007F0883120313BA
:101E0E00A00052080A168A15FD200A128A15E63E0F
:101E1E008400831380011F30FF007F088312031399
:101E2E00A00052080A168A15FD200A128A15E73EEE
:101E3E008400831380011F30FF007F088312031379
:101E4E00A00052080A168A15FD200A128A15E03ED5
:101E5E00FF007F0883120313A3000830FF007F08E2
:101E6E00A40000300A168A1172200A128A158312F3
:101E7E000313D001D1011F30FF007F08A0005208CC
:101E8E000A168A15FD200A128A15E03E83120313E4
:101E9E005007CD004D08840083130008CE001F307C
:101EAE00FF007F08A00052080A168A15FD200A12AC
:101EBE008A15D83E831203135007CF004F088400B3
:101ECE00831300084E0603196D2F6E2F7D2F1F30C2
:101EDE00FF007F08A00052080A168A15FD200A127C
:101EEE008A15D73E8400831380018C2F0130D007D2
:101EFE000318D10A0030D1070030510208300319FF
:101F0E005002031C8B2F8C2F422F1F30FF007F0897
:101F1E0083120313A00052080A168A15FD200A1216
:101F2E008A15D73E84008313000803199F2FA02F14
:101F3E00B92F1F30FF007F0883120313A000520831
:101F4E000A168A15FD200A128A15D43E840008301E
:101F5E000A168A152F250A128A15FF007F08831389
:101F6E008000FF2F1F30FF007F0883120313A00095
:101F7E0052080A168A15FD200A128A15D83EFF004D
:101F8E007F0883120313A3000830FF007F08A4000C
:101F9E0000300A168A154A260A128A150030831254
:101FAE000313AC000030AB000030AA000A30A900C9
:101FBE000A168A1532240A128A151F30FF007F086E
:101FCE0083120313A00052080A168A15FD200A1266
:101FDE008A15D43E840083130008FF007F08831205
:101FEE000313A30008300A168A1556230A128A15FF
:101FFE000800831203174D03031D062807280B281C
:10200E000130FF007F08CC004C080A168A15A32168
:10201E000A168A11080083120313B6000530FF005A
:10202E007F08A00036080A168A15FD200A168A11A6
:10203E00903E8400831203133408FF007F08831739
:10204E0080000530FF007F08A00036080A168A15AA
:10205E00FD200A168A11913E84008312031335085F
:10206E00FF007F08831780000530FF007F08A00067
:10207E0036080A168A15FD200A168A11923E840029
:10208E00831780010530FF007F0883120313A00021
:10209E0036080A168A15FD200A168A11933E840008
:1020AE00831780010530FF007F0883120313A00001
:1020BE0036080A168A15FD200A168A11943E8400E7
:1020CE00831780018312031336080A168A152823F4
:1020DE000A168A11080083120313A7000A168A151E
:1020EE003F200A168A1180280A168A1534200A16ED
:1020FE008A11A0300A168A1570210A168A11003A22
:10210E00031D8A288B287B288312031327080A169F
:10211E008A1570210A168A110A168A153F200A1688
:10212E008A11A1300A168A1570210A168A11831295
:10213E000313A801A901C0280A168A1588210A16B8
:10214E008A11FF008312031328082307A500250810
:10215E0084007F08831380000A168A1589200A16C8
:10216E008A11013083120313A8070318A90A00303D
:10217E00A9072408A500A60126082902031DC928BF
:10218E0025082802031CCC28CD28A3280A168A1558
:10219E004A200A168A11080083120313AA0005307A
:1021AE00FF007F08A0002A080A168A15FD200A16CD
:1021BE008A11913E840083170008FF007F08831266
:1021CE000313A3000530FF007F08A0002A080A169B
:1021DE008A15FD200A168A11903E84008317000886
:1021EE000A168A157E220A168A11013A031D002943
:1021FE0001290329003033290530FF007F0883129F
:10220E000313A0002A080A168A15FD200A168A1141
:10221E00913E840083170008FF007F08831203138A
:10222E00A3000530FF007F08A0002A080A168A15B1
:10223E00FD200A168A11903E8400831700080A16A4
:10224E008A157E220A168A11003A031D2F2930297B
:10225E003229013033290230080083120313B900EA
:10226E003608FF003908B80002300310B80DFF3EE3
:10227E00031D3C290310380DB93E84007F088313DB
:10228E0080003708FF003908B80002300310B80D7F
:10229E00FF3E031D4D290310380DBA3E84007F0802
:1022AE0080003908B80002300310B80DFF3E031D40
:1022BE005B290310380DBB3E840080013908B8003D
:1022CE0002300310B80DFF3E031D68290310380DB0
:1022DE00BC3E840080013908B80002300310B80DEE
:1022EE00FF3E031D75290310380DBD3E840080018D
:1022FE00840A80013908B80002300310B80DFF3E81
:10230E00031D84290310380DBF3E84008001840A0A
:10231E00800139080A168A15D0220A168A11080079
:10232E0083120313B8000530FF007F08A0003808A1
:10233E000A168A15FD200A168A11663E840083123B
:10234E0003133408FF007F08831380000530FF005D
:10235E007F08A00038080A168A15FD200A168A1171
:10236E00673E8400831203133508FF007F08831332
:10237E0080000530FF007F08A00038080A168A1575
:10238E00FD200A168A11683E840083120313360854
:10239E00FF007F08831380000530FF007F08A00038
:1023AE0038080A168A15FD200A168A11693E84001D
:1023BE00831203133708FF007F0883138000053054
:1023CE00FF007F08A00038080A168A15FD200A169D
:1023DE008A116A3E84008313800183120313380826
:1023EE000A168A15EF260A168A1108000030831283
:1023FE000313BF000030BE000030BD000030BC0033
:10240E00360835043404330403190E2A0F2A5C2AC5
:10241E00C001C00A1F2A0130BB000310B30DB40D5A
:10242E00B50DB60DBB0B142A0130FF007F08C00797
:10243E00B61F222A232A122A0130BB000310BC0D1C
:10244E00BD0DBE0DBF0DBB0B252A36083A02031D6E
:10245E003A2A35083902031D3A2A34083802031D78
:10246E003A2A33083702031C3D2A3E2A4D2A3308E6
:10247E00B7023408031C340FB8023508031C350F9D
:10248E00B9023608031C360FBA023C140130031091
:10249E00B60CB50CB40CB30CFF3E031D4E2A013026
:1024AE00C002031D5B2A5C2A232A3F08B6003E08A1
:1024BE00B5003D08B4003C08B300080083120313B6
:1024CE00A801A41F6B2A6C2A732AA309A409A30AC4
:1024DE000319A40AA801A80AA61F762A772A802A19
:1024EE00A509A609A50A0319A60A0130FF007F084F
:1024FE00A806A901AA01230824040319872A882AF9
:10250E00BF2AA701A70A962A01300310A30DA40D16
:10251E00FF3E031D8C2A0130FF007F08A707A41F72
:10252E00992A9A2A8B2A01300310A90DAA0DFF3E73
:10253E00031D9B2A24082602031DA72A2308250211
:10254E00031CAA2AAB2AB22A2308A5022408031CBC
:10255E00A603A602291401300310A40CA30CFF3EFF
:10256E00031DB32A0130A702031DBE2ABF2A9A2AD1
:10257E0028080319C32AC42AC92AA909AA09A90A1B
:10258E000319AA0A2A08A4002908A3000800831226
:10259E000313A3000630FF007F08A00023080A16CD
:1025AE008A15FD200A168A11103E84008317000832
:1025BE00031DE22AE32AE42A362B0630FF007F08A9
:1025CE0083120313A00023080A168A15FD200A168B
:1025DE008A11103E8400831780010630FF007F08A9
:1025EE0083120313A00023080A168A15FD200A166B
:1025FE008A11113E840083178001840A80010630FF
:10260E00FF007F0883120313A00023080A168A1501
:10261E00FD200A168A11133E8400831780010630AE
:10262E00FF007F0883120313A00023080A168A15E1
:10263E00FD200A168A11143E84008317800106308D
:10264E00FF007F0883120313A00023080A168A15C1
:10265E00FD200A168A11153E84008317800108009A
:10266E0083120313C6000030CA000030C9000030C8
:10267E00C8000030C700CB01CC011930FF007F0825
:10268E00A00046080A168A15FD200A168A11AC3ECD
:10269E00831203134B07C100410884008313000803
:1026AE00C200C301C401C5014208C7074308031194
:1026BE000318013E0319642BC807440803110318BD
:1026CE00013E03196B2BC907450803110318013E80
:1026DE000319722BCA070130CB070318CC0A00303E
:1026EE00CC0700304C020A3003194B02031C802B1E
:1026FE00812B442B0030B6000030B5000030B40002
:10270E000A30B3004A08BA004908B9004808B800B0
:10271E004708B7000A168A11FD210A168A1183127C
:10272E0003133608CA003508C9003408C800330838
:10273E00C7004708080083120313B20004303206A4
:10274E00031DAA2BAB2BB22B04302302031CB02B80
:10275E00B12BB22B0D2C2408A600230AB82B031084
:10276E00A60DFF3E031DB62B3208A70027075C3EC1
:10277E00840083130008A800840A0008A900280812
:10278E00803EAA0029080318013E003EAB002A082D
:10279E00840083172B1C83130130AC00230AD92B22
:1027AE000310AC0DFF3E031DD72B2C08FF3A00057E
:1027BE002604FF003208AD002D075C3E8400831313
:1027CE000008AE00840A0008AF002E08803EB0005C
:1027DE002F080318013E003EB10030088400831715
:1027EE00311C83137F0880002508A60007300310D4
:1027FE00A60DFF3E031DFE2B831603130108803921
:10280E008312031326048316031381000800831218
:10281E000313B5000C30FF007F08A00035080A1620
:10282E008A15FD200A168A11A03E8400831700081F
:10283E00FF007F0883120313A300A401A501A50ABC
:10284E000C30FF007F08A00035080A168A15FD20FF
:10285E000A168A119F3E8400831700080A168A11F1
:10286E00A2230A168A1183120313B301B4010C308A
:10287E00FF007F08A00035080A168A15FD200A16EB
:10288E008A11A23E840083120313330883170007B4
:10289E00FF007F08A300A401A501A50A0C30FF00CC
:1028AE007F08A00035080A168A15FD200A168A111F
:1028BE00A13E8400831700080A168A11A2230A1665
:1028CE008A11013083120313B3070318B40A0030C0
:1028DE00B40700303402083003193302031C782C7D
:1028EE00792C3E2C080083120313C5001930FF000B
:1028FE007F08A00045080A168A15FD200A168A11BF
:10290E00A83E84008313000883120313B300840AC5
:10291E000008B400840A0008B500840A0008B60056
:10292E001930FF007F08A00045080A168A15FD2001
:10293E000A168A11A33E840083130008FF007F0845
:10294E0083120313A3001930FF007F08A00045086F
:10295E000A168A15FD200A168A11A23E84008313D8
:10296E0000080A168A15E8200A168A118312031324
:10297E002308C1002408C200C301C4014408A900F1
:10298E004308A8004208A7004108A6001930FF001E
:10299E007F08A00045080A168A15FD200A168A111E
:1029AE00A43E84008313000883120313AA00840A32
:1029BE000008AB00840A0008AC00840A0008AD00D1
:1029CE000A168A15B9250A168A11831203132908C5
:1029DE00BA002808B9002708B8002608B7000A165A
:1029EE008A11FD210A168A11831203133308080077
:1029FE00F401F501F401F5010630FF007F08F00047
:102A0E0074080A168A15BE200A168A11103E840012
:102A1E00831700080319142D152D772D0630FF008E
:102A2E007F08F00074080A168A15BE200A168A114D
:102A3E00133E840083170008031D262D272D562DC7
:102A4E000630FF007F08F00074080A168A15BE20B3
:102A5E000A168A11153E84000130FF007F08831785
:102A6E0080000630FF007F08F00074080A168A15F1
:102A7E00BE200A168A11143E840083170008F30044
:102A8E000630FF007F08F00074080A168A15BE2073
:102A9E000A168A11133E84007308831780000630CD
:102AAE00FF007F08F00074080A168A15BE200A1669
:102ABE008A11133E8400831700080319672D682DB1
:102ACE00772D0630FF007F08F00074080A168A156D
:102ADE00BE200A168A11133E84000130831780022D
:102AEE000130F4070318F50A0030F50700307502BF
:102AFE000A3003197402031C852D862D032D013017
:102B0E00FF007F0883120317CD0008008312031302
:102B1E00A700A801A901A801A9010630FF007F089E
:102B2E00A00028080A168A15FD200A168A11103EE2
:102B3E00840083170008031DA52DA62DA72DB82DE3
:102B4E00013083120313A8070318A90A0030A9073E
:102B5E00003029020A3003192802031CB72DB82DA4
:102B6E00942D0A308312031328062904031DC02D49
:102B7E00C12DC22D1D2E0630FF007F08A000280893
:102B8E000A168A15FD200A168A11103E8400831239
:102B9E0003132708FF007F08831780000630FF000D
:102BAE007F08A00028080A168A15FD200A168A1129
:102BBE00113E840083120313230883178000840AB6
:102BCE00240880000630FF007F08A00028080A169F
:102BDE008A15FD200A168A11133E840083120313F0
:102BEE002508FF007F08831780000630FF007F084E
:102BFE00A00028080A168A15FD200A168A11143E0E
:102C0E008400831203132608FF007F0883178000B9
:102C1E000630FF007F08A00028080A168A15FD203E
:102C2E000A168A11153E840083178001080083124C
:102C3E000313DA01DB01DA01DB010630FF007F0846
:102C4E00A0005A080A168A15FD200A168A11153E8A
:102C5E008400831700080319352E362E962E063063
:102C6E00FF007F0883120313A0005A080A168A1564
:102C7E00FD200A168A11103E840083170008FF00FB
:102C8E007F0883120313D9000630FF007F08A000CF
:102C9E005A080A168A15FD200A168A11113E84005A
:102CAE008317000883120313D700840A00088403D5
:102CBE00D8005708CD005808CE0059080A128A11BC
:102CCE0054200A168A110630FF007F088312031360
:102CDE00A0005A080A168A15FD200A168A11153EFA
:102CEE008400831780010630FF007F0883120313D0
:102CFE00A0005A080A168A15FD200A168A11143EDB
:102D0E00840083170008031D8D2E8E2E962E83129F
:102D1E0003135A080A168A11CE220A168A11013096
:102D2E0083120313DA070318DB0A0030DB070030C7
:102D3E005B020A3003195A02031CA62EA72E242E5C
:102D4E000A168A1100200A168A110A168A154221BD
:102D5E000A168A110800831203134D08FF007F081C
:102D6E00CF000530FF007F08A0004F080A168A1515
:102D7E00FD200A168A11933E84008317000803195A
:102D8E00C92ECA2EDC2E0530FF007F0883120313D6
:102D9E00A0004F080A168A15FD200A168A11933EC6
:102DAE008400013083178002562F831203134F08BD
:102DBE000A168A11D3200A168A11013A031DE82E2B
:102DCE00E92E462F0530FF007F0883120313A00063
:102DDE004F080A168A15FD200A168A11943E8400A1
:102DEE000130FF007F08831780070530FF007F0842
:102DFE0083120313A0004F080A168A15FD200A1627
:102E0E008A11943E8400023083170006031D102F92
:102E1E00112F562F0530FF007F0883120313A000D9
:102E2E004F080A168A15FD200A168A11923E840052
:102E3E0083178001800A0530FF007F088312031379
:102E4E00A0004F080A168A15FD200A168A11933E15
:102E5E0084003230FF007F08831780000530FF00AA
:102E6E007F0883120313A0004F080A168A15FD204F
:102E7E000A168A11943E840083178001562F05305E
:102E8E00FF007F0883120313A0004F080A168A154D
:102E9E00FD200A168A11943E8400831780010800D3
:102EAE00831203134D08FF007F08D10051080A1644
:102EBE008A117A240A168A1183120313CF0019304D
:102ECE00FF007F08A00051080A168A15FD200A1679
:102EDE008A11B63E84001930FF007F088312031357
:102EEE00A00051080A168A15FD200A168A11AC3E5A
:102EFE008313000783120313D000500884004F0879
:102F0E0080001930FF007F08A00051080A168A15AC
:102F1E00FD200A168A11B63E84000130FF007F089C
:102F2E00831380071930FF007F0883120313A0005C
:102F3E0051080A168A15FD200A168A11B63E84001B
:102F4E000A3083130006031DAD2FAE2FCF2F19307D
:102F5E00FF007F0883120313A00051080A168A157A
:102F6E00FD200A168A11B63E8400831380011930A3
:102F7E00FF007F0883120313A00051080A168A155A
:102F8E00FD200A168A11B73E840083138001800A41
:102F9E001930FF007F0883120313A00051080A1690
:102FAE008A15FD200A168A11B73E84008313000885
:102FBE000319E22FE32FFF2F8312031351080A1672
:102FCE008A1137230A168A1183120313CF00193080
:102FDE00FF007F08A00051080A168A15FD200A1668
:102FEE008A11B83E8400831203134F0883138000A6
:022FFE000800C9
:1030300064008001840A0406031900340406192878
:103040003F3406345B344F3466346D347D3407349A
:103050007F346F34053400340634003407340034D0
:1030600008340034093400340A168A156C200A1614
:103070008A158316031311080238910008000A16F6
:103080008A156C200A168A15831603131108013855
:10309000910008000A168A156C200A168A158316F4
:1030A00003131108043891000800831203131F084A
:1030B00041389F00831603131F08C0389F00080083
:1030C000053083120313B4000030B5000A128A11D0
:1030D000EC270A168A1508008316031314197128A1
:1030E00072286C2811081F39031D772878286C284E
:1030F0000800831603131108203891000A168A1558
:103100006C200A168A1583160313110810389100D3
:103110000800831603131108DF3991000A168A1577
:103120006C200A168A1583160313110810389100B3
:10313000080083120313A3001930FF007F08A000CA
:1031400023080A168A15FD200A168A15B83E84003F
:103150008313000808007E088A007F0882000A1690
:103160008A15AB200A168A158000840A04087D0699
:1031700003190034FF0A0319FE0AAF28F200F10117
:10318000721CC328C428C8287008FF007F08F107F4
:103190000310F00D0310F20C7208031DD028D12883
:1031A000C028710808000C08FB398C000A168A1127
:1031B000FF240A168A15790883120313FF00780882
:1031C0008A0077088400760E8300FE0E7E0E0900CA
:1031D000831203131F0810389F001F0804389F0034
:1031E0001F19F328F428F0281E08A40083160313DF
:1031F0001E0883120313A300080083120313A20006
:10320000A101221C0429052909292008FF007F08A3
:10321000A1070310A00D0310A20C2208031D112901
:10322000122901292108080083120313B2000C306F
:10323000FF007F08A00032080A168A15FD200A1632
:103240008A15A43E8400831203133108FF007F080F
:1032500083178000080083120313A4000530FF00C9
:103260007F08A00024080A168A15FD200A168A1570
:103270006A3E8400831203132308FF007F08831330
:1032800080000800831203174D03031D48294929B4
:103290005029CD0150290A128A1103200A168A15D5
:1032A000831203174D080319562957294B29CD01BD
:1032B00008000F30FF007F0883120313A0002308CB
:1032C0000A168A15FD200A168A15FF3E831203137B
:1032D00081000730FF007F08831603138104080074
:1032E00083120313A0000A168A156C200A168A1589
:1032F00083120313200893008C1D7F2980297C29C9
:103300000C08F7398C0083160313110840390800A4
:103310000A168A156C200A168A15831603131108DB
:103320000838910083128C1D9629972992290C0840
:10333000F7398C000A168A156C200A168A15831232
:1033400003131308080083120313AE002E08031999
:10335000AA29AB29B629A7010030A800A90000308E
:103360000A168A1501260A168A15C129A701A70A75
:103370000030A800A90000300A168A1501260A1696
:103380008A15080083120313A401A501A401A50155
:1033900024080A168A11CE220A168A1501308312D1
:1033A0000313A4070318A50A0030A507003025025F
:1033B0000A3003192402031CDE29DF29C8298312DD
:1033C0000317CC01CD010800831203134D08FF0041
:1033D0007F08D0000530FF007F08A00050080A16C3
:1033E0008A15FD200A168A156A3E84008313000898
:1033F000FF007F0883120313CF004F08FF007F08F0
:10340000AE0050080A128A1594220A168A1508007E
:1034100083120313A401A501201C0F2A102A162AC7
:103420002208A4070318A50A2308A50701300310E2
:10343000A20DA30DFF3E031D172A01300310A10C9E
:10344000A00CFF3E031D1E2A20082104031D292A6B
:103450002A2A0C2A2508A1002408A00008008312AB
:1034600003132708A1002608A000A030A2000F30F7
:10347000A3000A168A1508220A168A158312031356
:103480002008FF3EAA0021080318013EFF3EAB00C2
:103490002A0895002B0896002908FF007F0897044A
:1034A00010140B17831603130C1508008312031353
:1034B000A4000530FF007F08A00024080A168A1522
:1034C000FD200A168A15923E840083170008FF002B
:1034D0007F0883120313A3000530FF007F08A000BC
:1034E00024080A168A15FD200A168A15923E8400C1
:1034F0008317800183120313230808008312031328
:10350000A9002908A40024075C3E84008313000856
:10351000A500840A0008A600250884008317261C3D
:1035200083130130A700230A972A0310A70DFF3E3B
:10353000031D952A27080005A800230AA12A0310C5
:10354000A80CFF3E031D9F2A2808080083160313BA
:10355000940183120313140828389400831603136C
:103560009101831203134408B6004308B5004208D2
:10357000B4004108B3000030BA003D30B900093052
:10358000B8000030B7000A168A11FD210A168A1504
:10359000831203133308FF3E8316031393000800BE
:1035A00083120313B5003508B30002300310B30DC6
:1035B000FF3E031DD62A0310330DBA3E8400831349
:1035C0000008FF007F08A300A401A501A50A350893
:1035D000B40002300310B40DFF3E031DEA2A0310AD
:1035E000340DB93E840000080A168A11A2230A1677
:1035F0008A15080083120313AB002308FF007F081D
:10360000A4052B08A50025075C3E84008313000851
:10361000A600840A0008A700260884008317271C38
:103620008313230900052404FF002B08A8002807A2
:103630005C3E840083130008A900840A0008AA00E5
:103640002908840083172A1C83137F088000080040
:1036500083120313B3000530FF007F08A000330876
:103660000A168A15FD200A168A15913E84008317D2
:103670000008FF007F0883120313A300A401A40A1B
:10368000A501A50A0530FF007F08A00033080A162F
:103690008A15FD200A168A15903E840083170008BB
:1036A0000A168A11A2230A168A1508008312031328
:1036B000A4000A168A153F200A168A15642B0A16DA
:1036C0008A1534200A168A15A0300A168A15702128
:1036D0000A168A15003A031D6E2B6F2B5F2B83127F
:1036E000031324080A168A1570210A168A158312F4
:1036F000031323080A168A1570210A168A150A165A
:103700008A154A200A168A150800912B0430FF00FA
:103710007F08A8000130A802280A031D902B912BD6
:103720008A2B013083120313A4000030A50000305F
:10373000A6000030A7002408A0022508031C250FBE
:10374000A22BA32BA1022608031C260FA82BA92B12
:10375000A2022708031C270FAE2BAF2BA302200ABF
:10376000031DBC2B210A031DBC2B220A031DBC2BED
:10377000230A031DBC2BBD2B862B080083120313C9
:10378000AA000C30FF007F08A0002A080A168A153C
:10379000FD200A168A15A53E84008312031327080C
:1037A000FF007F08831780000C30FF007F08A00017
:1037B0002A080A168A15FD200A168A15A73E8400D3
:1037C000053083120313A0000030A1002908A300D4
:1037D0002808A2000A168A1573250A168A1583126C
:1037E0000313200883178000840A21088000080042
:1037F00083120313AE00FF30AD000C30FF007F08D2
:10380000A0002E080A168A15FD200A168A15A23E67
:1038100084008317000A83120313102C0310AD0DCC
:10382000FF3E031D0E2C2D08FF007F08A3002C086F
:10383000B73E84000008FF007F08A4000C30FF00A2
:103840007F08A0002E080A168A15FD200A168A1580
:10385000A13E8400831700080A168A15FA220A1668
:103860008A150800402C0030A3000030A20003306D
:10387000A100E830A0000A168A1585230A168A15C9
:10388000013083120313AD000030AE000030AF00F2
:103890000030B0002D08A9022E08031C2E0F512C59
:1038A000522CAA022F08031C2F0F572C582CAB02A6
:1038B0003008031C300F5D2C5E2CAC02290A031D5E
:1038C0006B2C2A0A031D6B2C2B0A031D6B2C2C0A54
:1038D000031D6B2C6C2C332C080083120313B300D4
:1038E000972C2E08A4002D08A3002F08FF007F08A6
:1038F000A5003008FF007F08A6002C080A168A15CC
:1039000059210A168A15AA2C2E08A7002D08A600F0
:103910002F08FF007F08A8003008FF007F08A900DB
:103920002C080A168A152F220A168A15AA2C330883
:10393000B100B2013208003A03199F2CAA2C3108B9
:10394000003A0319712C013A0319842C033A031924
:10395000AA2CAA2C080083120313AD000130FF002B
:103960007F08A4052408A500230AB82C0310A50D80
:10397000FF3E031DB62C2D08A60026075C3E8400E2
:1039800083130008A700840A0008A8002708840001
:103990008317281C83130130A900230AD12C03109C
:1039A000A90DFF3E031DCF2C2908FF3A0005250471
:1039B000FF002D08AA002A075C3E8400831300083C
:1039C000AB00840A0008AC002B08840083172C1C71
:1039D00083137F088000080083120313B30019309B
:1039E000FF007F08A00033080A168A15FD200A167A
:1039F0008A15A13E840083130008FF007F0883120C
:103A00000313A300A401A40AA501A50A1930FF000D
:103A10007F08A00033080A168A15FD200A168A15A9
:103A2000A03E8400831300080A168A11A2230A16F6
:103A30008A151930FF007F0883120313A000330892
:103A40000A168A15FD200A168A15A23E84008313E1
:103A500000080A168A1555200A168A1508008312CE
:103A60000313A1000A168A153F200A168A153D2D58
:103A70000A168A1534200A168A15A0300A168A15E5
:103A800070210A168A15003A031D472D482D382D3E
:103A90008312031321080A168A1570210A168A1543
:103AA0000A168A153F200A168A15A1300A168A15A9
:103AB00070210A168A150A168A1588210A168A158F
:103AC000FF007F0883120313A2000A168A157920CB
:103AD0000A168A150A168A154A200A168A158312AA
:103AE00003132208080083120313A401A501200870
:103AF000210403197C2D7D2DB42DA601A60A8B2D42
:103B000001300310A00DA10DFF3E031D812D0130DA
:103B1000FF007F08A607A11F8E2D8F2D802D01305D
:103B20000310A40DA50DFF3E031D902D21082302B7
:103B3000031D9C2D20082202031C9F2DA02DA72DC4
:103B40002008A2022108031CA303A30224140130AD
:103B50000310A10CA00CFF3E031DA82D0130A602EE
:103B6000031DB32DB42D8F2D2508A1002408A0001E
:103B70000800003083120313B2000030B10000309F
:103B8000B0000030AF00261CC62DC72DDE2D2A0840
:103B9000AF072B0803110318013E0319D02DB007FE
:103BA0002C0803110318013E0319D72DB1072D0866
:103BB00003110318013E0319DE2DB2070130AE00D8
:103BC0000310AA0DAB0DAC0DAD0DAE0BE02D013009
:103BD0000310A90CA80CA70CA60CFF3E031DE82D92
:103BE0002908280427042604031DF72DF82DC32DCA
:103BF0003208A9003108A8003008A7002F08A60045
:103C0000080083120313AD002708FF002D08AA0047
:103C100002300310AA0DFF3E031D092E03102A0DCA
:103C2000BB3E84007F08831380000530A000003075
:103C3000A1002908A3002808A2000A168A157325E6
:103C40000A168A15831203132108AC002008AB0062
:103C50001430A0000030A1002C08A3002B08A20003
:103C60000A168A1573250A168A15831203132D085E
:103C7000AA0002300310AA0DFF3E031D3A2E0310C6
:103C80002A0DBD3E8400200883138000840A210889
:103C90008000080083120313A7000A168A153F202C
:103CA0000A168A15582E0A168A1534200A168A15FD
:103CB000A0300A168A1570210A168A15003A031DCB
:103CC000622E632E532E8312031327080A168A15B9
:103CD00070210A168A1583120313A801A901842EE4
:103CE00028082307A50025088400831300080A1666
:103CF0008A1570210A168A15013083120313A8074A
:103D00000318A90A0030A9072408A500A60126085F
:103D10002902031D8D2E25082802031C902E912EAA
:103D2000702E0A168A154A200A168A150800831270
:103D30000313B1002E08031D9E2E9F2EC42E3108A2
:103D4000AF0002300310AF0DFF3E031DA22E031083
:103D50002F0DBA3E840083130008FF007F08A300E4
:103D6000A4013108B00002300310B00DFF3E031D66
:103D7000B42E0310300DB93E840000080A168A15CF
:103D8000AB240A168A15EE2E2E03031DC82EC92E4B
:103D9000EE2E3108AF0002300310AF0DFF3E031DC1
:103DA000CC2E03102F0DBA3E840083130008FF00B1
:103DB0007F08A300A401A40A3108B0000230031058
:103DC000B00DFF3E031DDF2E0310300DB93E840001
:103DD00000080A168A15AB240A168A1508008312F1
:103DE0000313B3000530FF007F08A00033080A1654
:103DF0008A15FD200A168A15673E84008313000881
:103E0000FF007F0883120313A300A401A501A50AE4
:103E10000530FF007F08A00033080A168A15FD2030
:103E20000A168A15663E8400831300080A168A1152
:103E3000A2230A168A150530FF007F088312031398
:103E4000A00033080A168A15FD200A168A15693E55
:103E5000840083130008FF007F0883120313A3006C
:103E6000A401A501A50A0530FF007F08A0003308C2
:103E70000A168A15FD200A168A15683E84008313E7
:103E800000080A168A11A2230A168A15080083124E
:103E90000313B001AE1F4D2F4E2F552FAD09AE09A4
:103EA000AD0A0319AE0AB001B00AAC1F582F592F42
:103EB0005E2FAB09AC09AB0A0319AC0A2B082C0422
:103EC0000319632F642F932FAF01AF0A722F0130B4
:103ED0000310AB0DAC0DFF3E031D682F0130FF003A
:103EE0007F08AF07AC1F752F762F672F2C082E0287
:103EF000031D7C2F2B082D02031C7F2F802F862F64
:103F00002B08AD022C08031CAE03AE0201300310D7
:103F1000AC0CAB0CFF3E031D872F0130AF02031D1D
:103F2000922F932F762F30080319972F982F9D2FBC
:103F3000AD09AE09AD0A0319AE0A2E08AC002D0872
:103F4000AB00080083120313AF002E03031DA92F3B
:103F5000AA2FD32F0C30FF007F08A0002F080A16CD
:103F60008A15FD200A168A15A03E840083170008D2
:103F7000FF007F0883120313A300A401A40A0C30DE
:103F8000FF007F08A0002F080A168A15FD200A16D8
:103F90008A159F3E8400831700080A168A15AB24F1
:103FA0000A168A15FF2F2E08031DD72FD82FFF2F93
:103FB0000C30FF007F08A0002F080A168A15FD208C
:103FC0000A168A15A03E840083170008FF007F08A8
:103FD00083120313A300A4010C30FF007F08A0008C
:103FE0002F080A168A15FD200A168A159F3E84009E
:103FF000831700080A168A15AB240A168A150800CA
:02400E003A3F37
:00000001FF
