:020000040000FA
:060000000A128A11122809
:10000800FE00030EF6000408F7000A08F800831241
:1000180003137F08F9000A168A15BE2C0A128A11E2
:1000280015288317E630FD001B30FE00E430FF0082
:10003800DC3084000A168A159A240A128A1183135E
:10004800F030FD001030FE000030FF00E630840084
:100058000A168A159A240A128A1183179030840086
:10006800DC300A168A15DC230A128A118313A030A1
:100078008400E6300A168A15DC230A128A115130E8
:1000880084006D300A168A15DC230A128A1183014E
:100098000A128A15A72EFF0000308A007F088207FF
:1000A80054280A128A15792C0A128A1566290A1206
:1000B8008A1167280A168A15FD2C0A128A15982BA8
:1000C8000A128A157F2D831203134308FF007F0845
:1000D800C800222D0330FF007F08A00048080A1638
:1000E8008A1512250A128A110A168A1537260A1243
:1000F8008A11003A0319812882284A2D1730FF00F7
:100108007F0883120313A00048080A168A151225CF
:100118000A128A11563E840083138001800A4A2DF0
:1001280048080A168A155F240A128A1183120313D3
:10013800C5001730FF007F08A00048080A168A1576
:1001480012250A128A11583E8400831203134508A7
:10015800831380001730FF007F08A00048080A16A4
:100168008A1512250A128A11593E84008313000841
:10017800FB3E83120313C500FF3003180030C6008E
:100188001730FF007F08A00048080A168A151225B4
:100198000A128A11583E8400831203134608803AD3
:1001A800C70080304702031DDC288313000845027E
:1001B800031CDF28E028F92883120313A001A00AF2
:1001C80048080A168A151A240A128A118312031378
:1001D800AA01AA0AE830AB000330AC0048080A16A6
:1001E8008A11F1210A128A1144291730FF007F0869
:1001F80083120313A00048080A168A1512250A124A
:100208008A11593E840083130008053E83120313A4
:10021800C500003003180130C6001730FF007F0802
:10022800A00048080A168A1512250A128A11583E93
:100238008400831203134608803A803C031D272953
:10024800450883130002031C2A292B29442902305C
:10025800FF007F0883120313A00048080A168A15B6
:100268001A240A128A1183120313AA01AA0A003057
:10027800AB00AC0048080A168A11F1210A128A114B
:100288001730FF007F0883120313A00048080A16DE
:100298008A1512250A128A11573E840003308313E7
:1002A8000006031D582959296D291730FF007F08BA
:1002B80083120313A00048080A168A1512250A1289
:1002C8008A11563E84000330FF007F0883138000A4
:1002D8004A2D1730FF007F0883120313A000480837
:1002E8000A168A1512250A128A11563E840002300F
:1002F800FF007F08831380004A2D1730FF007F0816
:10030800A00048080A168A1512250A128A11563EB4
:1003180084008313000883120313C5001730FF00FD
:100328007F08A00048080A168A1512250A128A11A1
:10033800573E840083120313450883138000AA01E3
:10034800AA0A0030AB00AC004808C50045070A16E9
:100358008A1591270A128A1183120313AA01AA0A7D
:100368000030AB00AC000314480D0A168A1591271B
:100378000A128A110A3083120313AB000030AC0052
:100388001730FF007F08A00048080A168A151225B2
:100398000A128A11583E840083130008831203133B
:1003A800C500C6014508AD004608AE000A168A1108
:1003B8003D230A128A11831203132B08FF007F08BA
:1003C800B1004808C70047070A168A15D3240A123D
:1003D8008A110A3083120313AB000030AC000A30D4
:1003E800A3000030A4001730FF007F08A0004808D1
:1003F8000A168A1512250A128A11583E8400831398
:10040800000883120313C500C6014508A500460865
:10041800A6000A168A11C2240A128A11831203132B
:100428002408AE002308AD000A168A113D230A12DB
:100438008A11831203132B08FF007F08B1000314ED
:10044800480D0A168A15D3240A128A110330FF00B0
:100458007F0883120313A00048080A168A1512257C
:100468000A128A11023E0A168A1537260A128A11BA
:10047800003A031D402A412A582A0330FF007F080A
:1004880083120313A00048080A168A1512250A12B7
:100498008A11013E0A168A1537260A128A11003A6D
:1004A8000319572A582A6C2A1730FF007F0883122D
:1004B8000313A00048080A168A1512250A128A1181
:1004C800563E84000330FF007F08831380004A2DC6
:1004D8000330FF007F0883120313A00048080A16A0
:1004E8008A1512250A128A110A168A1537260A123F
:1004F8008A11003A0319812A822A962A1730FF00A6
:100508007F0883120313A00048080A168A151225CB
:100518000A128A11563E84000430FF007F088313B4
:1005280080004A2D1730FF007F0883120313A000B4
:1005380048080A168A1512250A128A11563E84009E
:1005480083138001800A4A2D1730FF007F08A0001E
:1005580048080A168A1512250A128A11563E84007E
:100568008313000883120313C5001730FF007F08A8
:10057800A00048080A168A1512250A128A11573E41
:10058800840083120313450883138000AA01AA0A72
:10059800E830AB000330AC004808C50045070A1630
:1005A8008A1591270A128A1183120313AA01AA0A2B
:1005B800E830AB000330AC000314480D0A168A1566
:1005C80091270A128A110A3083120313AB000030F4
:1005D800AC001730FF007F08A00048080A168A15EB
:1005E80012250A128A11593E8400831300088312C7
:1005F8000313C500C6014508AD004608AE000A163B
:100608008A113D230A128A11831203132B08FF0053
:100618007F08B1004808C70047070A168A15D3247F
:100628000A128A110A3083120313AB000030AC009F
:100638000A30A3000030A4001730FF007F08A00094
:1006480048080A168A1512250A128A11593E84008A
:100658008313000883120313C500C6014508A500CB
:100668004608A6000A168A11C2240A128A118312A1
:1006780003132408AE002308AD000A168A113D238F
:100688000A128A11831203132B08FF007F08B10096
:100698000314480D0A168A15D3240A128A11033046
:1006A800FF007F0883120313A00048080A168A1562
:1006B80012250A128A11023E0A168A1537260A12CC
:1006C8008A11003A0319692B6A2BA42B1730FF00F3
:1006D8007F0883120313A00048080A168A151225FA
:1006E8000A128A11593E8400473083130002031806
:1006F8007E2B7F2BA42B1730FF007F088312031358
:10070800A00048080A168A1512250A128A11593EAD
:1007180084000530FF007F08831380071730FF002F
:100728007F0883120313A00048080A168A151225A9
:100738000A128A115A3E840083138001840A8001B8
:100748000330FF007F0883120313A00048080A162D
:100758008A1512250A128A11013E0A168A153726A9
:100768000A128A11003A0319BA2BBB2BF32B173044
:10077800FF007F0883120313A00048080A168A1591
:1007880012250A128A11593E840028308313000268
:10079800031CCF2BD02BF32B1730FF007F088312BD
:1007A8000313A00048080A168A1512250A128A118E
:1007B800593E84000530831380021730FF007F08FC
:1007C80083120313A00048080A168A1512250A1274
:1007D8008A115A3E840083138001840A8001033001
:1007E800FF007F0883120313A00048080A168A1521
:1007F80012250A128A110A168A1537260A128A1130
:10080800003A0319082C092C1D2C1730FF007F080B
:1008180083120313A00048080A168A1512250A1223
:100828008A11563E84000430FF007F08831380003D
:100838002E2C1730FF007F0883120313A0004808EE
:100848000A168A1512250A128A11563E8400831345
:100858008001800A1730FF007F0883120313A0006D
:1008680048080A168A1512250A128A115A3E840067
:100878008313000883120313C50001308007840A1C
:100888000008C60000300318800A800700304602BE
:10089800193003194502031C522C532C4A2D1730CA
:1008A800FF007F08A00048080A168A1512250A12B8
:1008B8008A115A3E840083138001840A800117300C
:1008C800FF007F0883120313A00048080A168A1540
:1008D80012250A128A11593E840083130008FF006A
:1008E8007F0883120313A30008300A168A156227AB
:1008F8000A128A111730FF007F0883120313A00021
:1009080048080A168A1512250A128A11563E8400CA
:100918000230FF007F08831380004A2DA001480899
:100928000A168A151A240A128A1183120313AA01B5
:100938000030AB00AC0048080A168A11F1210A12EF
:100948008A1183120313AA010030AB00AC004808D7
:10095800C50045070A168A1591270A128A118312BB
:100968000313AA010030AB00AC000314480D0A16AB
:100978008A1591270A128A111730FF007F088312FF
:100988000313A00048080A168A1512250A128A11AC
:10099800593E840083130008FF007F088312031365
:1009A800A30008300A168A1562270A128A1117301E
:1009B800FF007F0883120313A00048080A168A154F
:1009C80012250A128A115A3E840083138001840A70
:1009D80080011730FF007F0883120313A000480826
:1009E8000A168A1512250A128A11563E84008313A4
:1009F80080011730FF007F0883120313A000480806
:100A08000A168A1512250A128A11563E8400831383
:100A1800000883120313C5001730FF007F08A000E9
:100A280048080A168A1512250A128A11573E8400A8
:100A3800831203134508831380004A2D1730FF00E3
:100A48007F08A00048080A168A1512250A128A117A
:100A5800563E84008313000883120313C500C601A1
:100A68004608003A0319392D4A2D4508003A03195A
:100A78006E28013A03199428033A03198129013A87
:100A88000319A82A073A0319922C4A2D0800831241
:100A98000313C7000A168A15DC260A128A111730B2
:100AA800FF007F0883120313A00047080A168A155F
:100AB80012250A128A11563E8400831380011730CA
:100AC800FF007F0883120313A00047080A168A153F
:100AD80012250A128A11563E8400831300088312D5
:100AE8000313C2001730FF007F08A00047080A164A
:100AF8008A1512250A128A11573E8400831203139D
:100B08004208831380001730FF007F08A0004708C1
:100B18000A168A1512250A128A11583E8400831370
:100B280080011730FF007F0883120313A0004708D5
:100B38000A168A1512250A128A11593E84003C3079
:100B4800FF007F08831380001730FF007F0883129F
:100B58000313A00047080A168A1512250A128A11DB
:100B68005A3E840083138001840A80011730FF00F5
:100B78007F0883120313A00047080A168A15122556
:100B88000A128A115C3E840083138001800A1730A0
:100B9800FF007F0883120313A00047080A168A156E
:100BA80012250A128A115D3E84002330FF007F0857
:100BB800831380001730FF007F0883120313A000FF
:100BC80047080A168A1512250A128A115E3E840001
:100BD8005030FF007F08831380001730FF007F0824
:100BE80083120313A00047080A168A1512250A1251
:100BF8008A115F3E84007730FF007F0883138000EE
:100C08001730FF007F0883120313A00047080A1655
:100C18008A1512250A128A11603E84007230FF007C
:100C28007F08831380001730FF007F0883120313A7
:100C3800A00047080A168A1512250A128A11613E71
:100C480084005530FF007F08831380001730FF00B1
:100C58007F0883120313A00047080A168A15122575
:100C68000A128A11623E84007030FF007F088313E5
:100C780080001730FF007F0883120313A000470885
:100C88000A168A1512250A128A11633E84005F30FB
:100C9800FF007F08831380001730FF007F0883124E
:100CA8000313A00047080A168A1512250A128A118A
:100CB800643E84003130FF007F08831380001730C2
:100CC800FF007F0883120313A00047080A168A153D
:100CD80012250A128A11653E840083138001173099
:100CE800FF007F0883120313A00047080A168A151D
:100CF80012250A128A11663E840083138001173078
:100D0800FF007F0883120313A00047080A168A15FC
:100D180012250A128A11673E840083138001173056
:100D2800FF007F0883120313A00047080A168A15DC
:100D380012250A128A11683E840083138001173035
:100D4800FF007F0883120313A00047080A168A15BC
:100D580012250A128A11693E840083138001173014
:100D6800FF007F0883120313A00047080A168A159C
:100D780012250A128A116A3E8400831380011730F3
:100D8800FF007F0883120313A00047080A168A157C
:100D980012250A128A116B3E8400831380011730D2
:100DA800FF007F0883120313A00047080A168A155C
:100DB80012250A128A116C3E8400831380011730B1
:100DC800FF007F0883120313A00047080A168A153C
:100DD80012250A128A11653EFF007F088312031349
:100DE800A3000830FF007F08A40000300A168A110B
:100DF80098230A128A1183120313C501C6011730FA
:100E0800FF007F08A00047080A168A1512250A1253
:100E18008A11653E831203134507C2004208840005
:100E280083130008C3001730FF007F08A00047089D
:100E38000A168A1512250A128A115D3E83120313B7
:100E48004507C400440884008313000843060319B7
:100E58002E2F2F2F3E2F1730FF007F08A0004708A6
:100E68000A168A1512250A128A115C3E8400831319
:100E780080014D2F0130C5070318C60A0030C60788
:100E880000304602083003194502031C4C2F4D2F31
:100E9800032F1730FF007F0883120313A0004708B1
:100EA8000A168A1512250A128A115C3E84008313D9
:100EB80000080319602F612F7A2F1730FF007F0871
:100EC80083120313A00047080A168A1512250A126E
:100ED8008A11593E840008300A168A1185200A12A0
:100EE8008A11FF007F0883138000C02F1730FF008E
:100EF8007F0883120313A00047080A168A151225D3
:100F08000A128A115D3EFF007F0883120313A300B3
:100F18000830FF007F08A40000300A168A11A421B7
:100F28000A128A11003083120313AC000030AB00A0
:100F38000030AA000A30A9000A128A1506200A12EF
:100F48008A111730FF007F0883120313A000470897
:100F58000A168A1512250A128A11593E840083132B
:100F68000008FF007F0883120313A30008300A1645
:100F78008A1562270A128A11080083120313AD002A
:100F88002408A500230ACA2F0310A50DFF3E031D40
:100F9800C82F2D08A6002607E63E84008313000804
:100FA800A700840A0008A800270884008317281CC3
:100FB80083130130A900230AE32F0310A90DFF3E74
:100FC800031DE12F2908FF3A00052504FF002D081D
:100FD800AA002A07E63E840083130008AB00840AAF
:100FE8000008AC002B08840083172C1C83137F088F
:060FF80080000800080063
:10100C0014280030A3000030A2000330A100E83007
:10101C00A0000A168A15C7270A128A1501308312F6
:10102C000313AD000030AE000030AF000030B00054
:10103C002D08A9022E08031C2E0F25282628AA02EB
:10104C002F08031C2F0F2B282C28AB023008031C55
:10105C00300F31283228AC02290A031D3F282A0AF6
:10106C00031D3F282B0A031D3F282C0A031D3F2874
:10107C0040280728080083120313A700A801A90120
:10108C00A801A9010630FF007F08A00028080A1655
:10109C008A1512250A128A15903E840083170008BF
:1010AC00031D59285A285B286C280130831203131E
:1010BC00A8070318A90A0030A907003029020A3032
:1010CC0003192802031C6B286C2848280A30831249
:1010DC00031328062904031D742875287628D128A3
:1010EC000630FF007F08A00028080A168A15122572
:1010FC000A128A15903E8400831203132708FF00FE
:10110C007F08831780000630FF007F08A0002808A6
:10111C000A168A1512250A128A15913E840083122A
:10112C000313230883178000840A240880000630E8
:10113C00FF007F08A00028080A168A1512250A123B
:10114C008A15933E8400831203132508FF007F0841
:10115C00831780000630FF007F08A00028080A16BD
:10116C008A1512250A128A15943E840083120313E1
:10117C002608FF007F08831780000630FF007F08D9
:10118C00A00028080A168A1512250A128A15953EFF
:10119C00840083178001080083120313CF01D00150
:1011AC00CF01D0010630FF007F08A0004F080A16BF
:1011BC008A1512250A128A15953E84008317000899
:1011CC000319E928EA284A290630FF007F08831210
:1011DC000313A0004F080A168A1512250A128A1545
:1011EC00903E840083170008FF007F0883120313CE
:1011FC00CE000630FF007F08A0004F080A168A15A3
:10120C0012250A128A15913E840083170008831256
:10121C000313CC00840A00088403CD004C08C300DF
:10122C004D08C4004E080A128A114F200A128A1562
:10123C000630FF007F0883120313A0004F080A1624
:10124C008A1512250A128A15953E8400831780018F
:10125C000630FF007F0883120313A0004F080A1604
:10126C008A1512250A128A15943E840083170008E9
:10127C00031D412942294A29831203134F080A16D8
:10128C008A112B250A128A15013083120313CF07FA
:10129C000318D00A0030D007003050020A3003196E
:1012AC004F02031C5A295B29D8280A168A15712467
:1012BC000A128A150A168A1529250A128A15080097
:1012CC00831203134308FF007F08C5000330FF009F
:1012DC007F08A00045080A168A1512250A128A15DD
:1012EC00C93E84008313000803197D297E299029A7
:1012FC000330FF007F0883120313A00045080A1671
:10130C008A1512250A128A15C93E840001308313EE
:10131C0080020A2A8312031345080A168A155825D7
:10132C000A128A15003A031D9C299D29FA290330BB
:10133C00FF007F0883120313A00045080A168A15C4
:10134C0012250A128A15CA3E84000130FF007F085C
:10135C00831380070330FF007F0883120313A00060
:10136C0045080A168A1512250A128A15CA3E8400E7
:10137C00023083130006031DC429C5290A2A033031
:10138C00FF007F0883120313A00045080A168A1574
:10139C0012250A128A15C93E84003230FF007F08DC
:1013AC00831380000330FF007F0883120313A00017
:1013BC0045080A168A1512250A128A15CA3E840097
:1013CC00831380010330FF007F0883120313A000F6
:1013DC0045080A168A1512250A128A15CB3E840076
:1013EC0083138001800A0A2A0330FF007F088312CE
:1013FC000313A00045080A168A1512250A128A152D
:10140C00CA3E840083138001080083120313BB00BF
:10141C003208FF003B08B60001300310B60DFF3E4A
:10142C00031D132A0310360DDE3E84007F08831340
:10143C0080003308FF003B08B60001300310B60DE6
:10144C00FF3E031D242A0310360DDF3E84007F0867
:10145C0080003408FF003B08B60001300310B60DC5
:10146C00FF3E031D342A0310360DE03E84007F0836
:10147C0080003508FF003B08B60001300310B60DA4
:10148C00FF3E031D442A0310360DE13E84007F0805
:10149C0080003B08B60001300310B60DFF3E031D63
:1014AC00522A0310360DDF3E84000008FF007F082F
:1014BC00A300A4013B08B70001300310B70DFF3E99
:1014CC00031D632A0310370DDE3E840000080A1644
:1014DC008A1157210A128A15831203133B08B6008E
:1014EC0001300310B60DFF3E031D772A0310360D95
:1014FC00E13E840083130008B700B8013708B90037
:10150C003808BA00A82A3908FF007F08A300A401F4
:10151C003B08B60001300310B60DFF3E031D912AA7
:10152C000310360DE03E840000080A168A1157217C
:10153C000A128A15013083120313B9070318BA0A69
:10154C000030BA073B08B60001300310B60DFF3E61
:10155C00031DAB2A0310360DE13E840083130008F3
:10156C00083EB700003003180130B80038083A02C2
:10157C00031DC22A37083902031CC52AC62A892A28
:10158C00080083120313B5000D30FF007F08A00084
:10159C0035080A168A1512250A128A15B03E8400DF
:1015AC00831203133208FF007F08831380000D3071
:1015BC00FF007F08A00035080A168A1512250A12AA
:1015CC008A15B13E8400831203133308FF007F0891
:1015DC00831380000D30FF007F08A00035080A1629
:1015EC008A1512250A128A15B23E8400831203133F
:1015FC003408FF007F08831380000D30FF007F0844
:10160C00A00035080A168A1512250A128A15B33E4F
:10161C0084000230FF007F08831380000D30FF0030
:10162C007F0883120313A00035080A168A151225A9
:10163C000A128A15B43E8400593083138000840A40
:10164C0073308000840A07308000840A00308000E8
:10165C000D30FF007F0883120313A00035080A1613
:10166C008A1512250A128A15B83E8400403083135D
:10167C008000840A42308000840A0F308000840A83
:10168C00003080000D30FF007F0883120313A00090
:10169C0035080A168A1512250A128A15BC3E8400D2
:1016AC00831380010D30FF007F0883120313A00009
:1016BC0035080A168A1512250A128A15B13E8400BD
:1016CC0083130008FF007F0883120313A300A401F7
:1016DC00A40A0D30FF007F08A00035080A168A15F1
:1016EC0012250A128A15B03E8400831300080A16CC
:1016FC008A1157210A128A150D30FF007F088312B8
:10170C000313A00035080A168A1512250A128A1529
:10171C00B23E8400831300080A168A150F240A129D
:10172C008A150800831203134308FF007F08C800C2
:10173C000630FF007F08A00048080A168A151225FB
:10174C000A128A15C13E8400831300088312031306
:10175C00C500840A0008C600450846040319B72BC7
:10176C00B82BCE2B0630FF007F08A00048080A16C5
:10177C008A1512250A128A15C13E84000130831382
:10178C008002840F0030031C800380028403412CF0
:10179C000630FF007F08A00048080A168A1512259B
:1017AC000A128A15BF3E84008313000883120313A8
:1017BC00C500840A0008C600450846040319E72B37
:1017CC00E82B332C0630FF007F08A00048080A16CF
:1017DC008A1512250A128A15BD3E8400831300084F
:1017EC0083120313C5000630FF007F08A0004808D1
:1017FC000A168A1512250A128A15BE3E8400831217
:10180C0003134508831380060630FF007F08A000F1
:10181C0048080A168A1512250A128A15BF3E84003A
:10182C008313000883120313C500840A0008C60042
:10183C000630FF007F08A00048080A168A151225FA
:10184C000A128A15C13E84008312031345088313C0
:10185C008000840A46088000412C0630FF007F0877
:10186C00A00048080A168A1512250A128A15BE3ECF
:10187C008400831380010630FF007F08831203135A
:10188C00A00048080A168A1512250A128A15BD3EB0
:10189C0084008313000883120313C5000630FF0075
:1018AC007F08A00048080A168A1512250A128A1504
:1018BC00BE3E8400831300080319652C672C01308D
:1018CC00682C0030831203134505FF007F08C70006
:1018DC004708FF007F08AE0048080A168A113E220E
:1018EC000A128A150800831203134308FF007F08AD
:1018FC00CA004A080A168A1172260A128A1583121D
:10190C000313C5000E30FF007F08A0004A080A161A
:10191C008A1512250A128A15D83E84000E30FF0053
:10192C007F0883120313A0004A080A168A15122591
:10193C000A128A15CE3E8317000783120313C600C2
:10194C0046088400450880000E30FF007F08A00088
:10195C004A080A168A1512250A128A15D83E8400DE
:10196C000130FF007F08831780070E30FF007F08CF
:10197C0083120313A0004A080A168A1512250A12AC
:10198C008A15D83E84000A3083170006031DCF2C1D
:10199C00D02CF12C0E30FF007F0883120313A00013
:1019AC004A080A168A1512250A128A15D83E84008E
:1019BC00831780010E30FF007F0883120313A000F1
:1019CC004A080A168A1512250A128A15D93E84006D
:1019DC0083178001800A0E30FF007F0883120313E7
:1019EC00A0004A080A168A1512250A128A15D93E31
:1019FC008400831700080319042D052D7E2D8312F6
:101A0C000313C801C9010E30FF007F08A0004A086B
:101A1C000A168A1512250A128A15CE3E8312031352
:101A2C004807C5004508840083170008C600C70195
:101A3C000E30FF007F08A0004A080A168A151225EE
:101A4C000A128A15DA3E84008312031346088317A0
:101A5C008007840F00080318000AFF0047087F075F
:101A6C00800084030130C8070318C90A0030C90775
:101A7C00003049020A3003194802031C462D472D39
:101A8C00092D0A30A3000030A4000E30FF007F089F
:101A9C00A0004A080A168A1512250A128A15DA3E7F
:101AAC0084008317000883120313A500840A00081E
:101ABC00A6000A168A11C9200A128A15831203136A
:101ACC002308C5002408C6000E30FF007F08A000C4
:101ADC004A080A168A1512250A128A15DA3E84005B
:101AEC0083120313450883178000840A460880007C
:101AFC000800831203134308FF007F08C90049083C
:101B0C00C50002300310C50DFF3E031D882D0310C8
:101B1C00450DA63E840083130008C600840A000805
:101B2C00C7004608470403199C2D9D2DB22D49086A
:101B3C00C50002300310C50DFF3E031DA02D031080
:101B4C00450DA63E840001308002840F0030031C3A
:101B5C00800380028403152E4908C500023003104F
:101B6C00C50DFF3E031DB52D0310450DA43E84008D
:101B7C000008C600840A0008C70046084704031979
:101B8C00C82DC92D082E4908C50002300310C50DFB
:101B9C00FF3E031DCC2D0310450DA23E8400000812
:101BAC00FF004908C60002300310C60DFF3E031D9E
:101BBC00DA2D0310460DA33E84007F0880064908E9
:101BCC00C50002300310C50DFF3E031DE82D0310A8
:101BDC00450DA43E84000008C600840A0008C70016
:101BEC004908C80002300310C80DFF3E031DF92D33
:101BFC000310480DA63E840046088000840A47085E
:101C0C008000152E4908C50002300310C50DFF3E9B
:101C1C00031D0B2E0310450DA33E84008001AE0165
:101C2C0049080A168A15B1260A128A15831203135B
:101C3C004908C50002300310C50DFF3E031D212EBF
:101C4C000310450DA03E840083130008031D2F2EA6
:101C5C00302E742E4908C50002300310C50DFF3E0E
:101C6C00031D332E0310450DA13E84000008FF0018
:101C7C007F08AA0049080A168A110A200A128A1536
:101C8C00831203134908C50002300310C50DFF3E33
:101C9C00031D4B2E0310450DA23E84008313000838
:101CAC00C6004908C70002300310C70DFF3E031DD4
:101CBC005A2E0310470DA33E840000080319672E0B
:101CCC00692E01306A2E00304605FF007F08AE00F9
:101CDC0049080A168A15B1260A128A150130FF0026
:101CEC00831203134908C50002300310C50DFF3ED3
:101CFC00031D7B2E0310450DA03E84007F0883132B
:101D0C0080074908C50002300310C50DFF3E031DB6
:101D1C008A2E0310450DA03E840002300006031DE0
:101D2C00982E992EA62E4908C50002300310C50D19
:101D3C00FF3E031D9C2E0310450DA03E8400800128
:101D4C00080083120313B701B70AB80100300A1652
:101D5C008A1143200A128A1583120313B701B70A9A
:101D6C00B801B80A01300A168A1143200A128A15E2
:101D7C0083120313B701B70A0230FF007F08B800C3
:101D8C0002300A168A1143200A128A158312031391
:101D9C00B6010230FF007F08B700B80100300A1608
:101DAC008A1194250A128A150230FF007F088312CB
:101DBC000313B9000530FF007F08BA000230FF00A2
:101DCC007F08BB000230FF007F08BC0000300A1601
:101DDC008A15AB250A128A1583120313B501B50AAD
:101DEC000630FF007F08B60000300A168A118E22DA
:101DFC000A128A1583120313B501B50A0730FF00C6
:101E0C007F08B60001300A168A118E220A128A1532
:101E1C0083120313BC010530FF007F08BD000330A3
:101E2C00FF007F08BE00BF0100300A168A1102268F
:101E3C000A128A1583120313BC010430FF007F08B9
:101E4C00BD000330FF007F08BE00BF0101300A1641
:101E5C008A1102260A128A1500300A128A114B25A1
:101E6C000A128A15003083120313A3000030A2005B
:101E7C000330A100E830A0000A168A15C7270A1201
:101E8C008A150A168A15CA250A128A150030831279
:101E9C000313A3000030A400A5010230FF007F084B
:101EAC00A60004300A128A1541200A128A15013044
:101EBC0083120313A3000030A400A5010230FF001D
:101ECC007F08A60004300A128A1541200A128A15CE
:101EDC00023083120313A3000030A400A5010230CA
:101EEC00FF007F08A60004300A128A1541200A124E
:101EFC008A15003083120313A3000030A400A5013F
:101F0C001430FF007F08A60001300A128A15412008
:101F1C000A128A15003083120313A3000030A400A8
:101F2C00A5011430FF007F08A60007300A128A159D
:101F3C0041200A128A15003083120313A3000030CB
:101F4C00A400A5011430FF007F08A6000A300A1275
:101F5C008A1541200A128A15003083120313A3003C
:101F6C000030A400A5011430FF007F08A6000D303E
:101F7C000A128A1541200A128A15013083120313A2
:101F8C00A3000030A400A5011430FF007F08A600B8
:101F9C000D300A128A1541200A128A15003083125C
:101FAC000313A3000030A400A501A601A60A10305B
:101FBC000A128A1541200A128A1501308312031362
:101FCC00A3000030A400A501A601A60A10300A1235
:101FDC008A1541200A128A150A168A1526240A1215
:101FEC008A150A128A15D2200A128A15F72F0A129C
:101FFC008A111228053400340634003407340034B6
:10200C00083400340934003483120313AE00FF305B
:10201C00AB002E08AC0001300310AC0DFF3E031DCD
:10202C00122803102C0DE13E84008313000A202893
:10203C000310AB0DFF3E031D1E282B08FF007F086D
:10204C00A0002A08DC3E840083170008FF007F08EC
:10205C00A1002E08AD0001300310AD0DFF3E031D95
:10206C00322803102D0DE03E8400831300080A165D
:10207C008A1508270A168A11080083120313B9005F
:10208C000330FF007F08A00039080A168A151225B4
:10209C000A168A11C93E8400831380010330FF00A5
:1020AC007F0883120313A00039080A168A1512251B
:1020BC000A168A11CA3E8400831380010330FF0084
:1020CC007F0883120313A00039080A168A151225FB
:1020DC000A168A11CB3E84008313800183120313EA
:1020EC003708FF007F08B2003808FF007F08B300F4
:1020FC0039080A168A1535270A168A110800831220
:10210C000313A1000A168A15F9230A168A119328BB
:10211C000A168A15EE230A168A11A0300A168A1599
:10212C0040250A168A11003A031D9D289E288E28E8
:10213C008312031321080A168A1540250A168A11E0
:10214C000A168A15F9230A168A11A1300A168A155D
:10215C0040250A168A110A168A1571250A168A1143
:10216C00FF007F0883120313A2000A168A153F246E
:10217C000A168A110A168A1504240A168A11831261
:10218C0003132208080083120313A701A8012308D4
:10219C0024040319D228D3280A29A901A90AE12861
:1021AC0001300310A30DA40DFF3E031DD7280130F1
:1021BC00FF007F08A907A41FE428E528D6280130D2
:1021CC000310A70DA80DFF3E031DE62824082602C8
:1021DC00031DF22823082502031CF528F628FD28E8
:1021EC002308A5022408031CA603A6022714013009
:1021FC000310A40CA30CFF3E031DFE280130A90202
:10220C00031D09290A29E5282808A4002708A3008A
:10221C000800003083120313AF000030AE00003012
:10222C00AD000030AC00231C1C291D2934292708C3
:10223C00AC07280803110318013E03192629AD0722
:10224C00290803110318013E03192D29AE072A088A
:10225C0003110318013E03193429AF070130AB00F9
:10226C000310A70DA80DA90DAA0DAB0B3629013033
:10227C000310A60CA50CA40CA30CFF3E031D3E29B9
:10228C002608250424042304031D4D294E2919294D
:10229C002F08A6002E08A5002D08A4002C08A300CA
:1022AC00080083120313B1002408A500230A602937
:1022BC000310A50DFF3E031D5E293108A60026075D
:1022CC00E63E840083130008A700840A0008A800D7
:1022DC002708803EA90028080318013E003EAA00EA
:1022EC002908840083172A1C83130130AB00230AAE
:1022FC0081290310AB0DFF3E031D7F292B08FF3AEC
:10230C0000052504FF003108AC002C07E63E8400D4
:10231C0083130008AD00840A0008AE002D08803E2F
:10232C00AF002E080318013E003EB0002F088400B9
:10233C008317301C83137F0880000800831203135B
:10234C00A7000A168A15F9230A168A11B2290A1649
:10235C008A15EE230A168A11A0300A168A15402512
:10236C000A168A11003A031DBC29BD29AD29831216
:10237C00031327080A168A1540250A168A11831298
:10238C000313A801A901DE2928082307A5002508A5
:10239C008400831300080A168A1540250A168A1130
:1023AC00013083120313A8070318A90A0030A907E8
:1023BC002408A500A60126082902031DE7292508E3
:1023CC002802031CEA29EB29CA290A168A150424B7
:1023DC000A168A11080083120313AF000630FF009F
:1023EC007F08A0002F080A168A1512250A168A11D2
:1023FC00BD3E8400831203132A08FF007F08831359
:10240C0080000530A3000030A4002C08A6002B0887
:10241C00A5000A168A11C9200A168A118312031301
:10242C002408AE002308AD000630FF007F08A00092
:10243C002F080A168A1512250A168A11BF3E840027
:10244C00143083120313A3000030A4002E08A6003E
:10245C002D08A5000A168A11C9200A168A118312A2
:10246C000313230883138000840A240880000800C7
:10247C0083120313AF000330FF007F08A0002F0866
:10248C000A168A1512250A168A11DA3E840083125E
:10249C0003132E08FF007F08831380000330FF0016
:1024AC007F08A0002F080A168A1512250A168A1111
:1024BC00D93E840083130008FF007F0883120313A6
:1024CC00A3000330FF007F08A0002F080A168A150E
:1024DC0012250A168A11DA3E840083130008FF00C5
:1024EC007F0883120313A4000330FF007F08A000B1
:1024FC002F080A168A1512250A168A11D83E84004E
:10250C00831300080A128A11C1270A168A110800BF
:10251C0083120313B7000630FF007F08A0003708B2
:10252C000A168A1512250A168A11BD3E84008313D9
:10253C0080010630FF007F0883120313A0003708C8
:10254C000A168A1512250A168A11BE3E84008313B8
:10255C0080010630FF007F0883120313A0003708A8
:10256C000A168A1512250A168A11BF3E8400831397
:10257C008001840A80010630FF007F088312031358
:10258C00A00037080A168A1512250A168A11C13EB0
:10259C00840083138001840A80018312031335089D
:1025AC00FF007F08B2003608FF007F08B300370831
:1025BC000A168A11F9230A168A11080083120313CA
:1025CC00B2003208AF0001300310AF0DFF3E031D07
:1025DC00EA2A03102F0D523E840083130008FF00DB
:1025EC007F08A3002E080139FF007F08A4003208E1
:1025FC00B00001300310B00DFF3E031D002B031083
:10260C00300D513E840000080A128A11C1270A16A7
:10261C008A11831203133208AF0001300310AF0D7F
:10262C00FF3E031D142B03102F0D543E8400831307
:10263C000008FF007F08A3002E08B0000310300C28
:10264C000139FF007F08A4003208B10001300310EB
:10265C00B10DFF3E031D2D2B0310310D533E840095
:10266C0000080A128A11C1270A168A11080083125F
:10267C000313B001AE1F432B442B4B2BAD09AE09FA
:10268C00AD0A0319AE0AB001B00AAC1F4E2B4F2B8A
:10269C00542BAB09AC09AB0A0319AC0A2B082C045C
:1026AC000319592B5A2B892BAF01AF0A682B013018
:1026BC000310AB0DAC0DFF3E031D5E2B0130FF0074
:1026CC007F08AF07AC1F6B2B6C2B5D2B2C082E02DD
:1026DC00031D722B2B082D02031C752B762B7C2BC8
:1026EC002B08AD022C08031CAE03AE020130031004
:1026FC00AC0CAB0CFF3E031D7D2B0130AF02031D58
:10270C00882B892B6C2B300803198D2B8E2B932B3C
:10271C00AD09AE09AD0A0319AE0A2E08AC002D089E
:10272C00AB00080083120313A7000A168A15F923BD
:10273C000A168A11A62B0A168A15EE230A168A1176
:10274C00A0300A168A1540250A168A11003A031D74
:10275C00B02BB12BA12B8312031327080A168A1551
:10276C0040250A168A110A168A15F9230A168A11A7
:10277C00A1300A168A1540250A168A1183120313F2
:10278C00A801A901E62B0A168A1571250A168A11C9
:10279C00FF008312031328082307A50025088400D3
:1027AC007F08831380000A168A154F240A168A1193
:1027BC00013083120313A8070318A90A0030A907D4
:1027CC002408A500A60126082902031DEF2B2508C5
:1027DC002802031CF22BF32BC92B0A168A1504248E
:1027EC000A168A11080083120313B4000330FF0089
:1027FC007F08A00034080A168A1512250A168A11B9
:10280C00D83E8400831203133208FF007F08831321
:10281C0080000330FF007F08A00034080A168A15D8
:10282C0012250A168A11D93E840083120313330829
:10283C00FF007F08831380000330FF007F08A00097
:10284C0034080A168A1512250A168A11DA3E8400F3
:10285C00831380010330FF007F0883120313A00051
:10286C0034080A168A1512250A168A11D93E8400D4
:10287C0083130008FF007F0883120313A300A40135
:10288C000330FF007F08A00034080A168A151225B1
:10289C000A168A11D83E8400831300080A168A117E
:1028AC0057210A168A110800003083120313BC004A
:1028BC000030BB000030BA000030B90033083204DD
:1028CC003104300403196B2C6C2CB92CBD01BD0ADE
:1028DC007C2C0130B8000310B00DB10DB20DB30D4E
:1028EC00B80B712C0130FF007F08BD07B31F7F2C84
:1028FC00802C6F2C0130B8000310B90DBA0DBB0D34
:10290C00BC0DB80B822C33083702031D972C3208F0
:10291C003602031D972C31083502031D972C300805
:10292C003402031C9A2C9B2CAA2C3008B4023108BC
:10293C00031C310FB5023208031C320FB6023308E8
:10294C00031C330FB702391401300310B30CB20C53
:10295C00B10CB00CFF3E031DAB2C0130BD02031DAE
:10296C00B82CB92C802C3C08B3003B08B2003A08B8
:10297C00B1003908B000080083120313A801A41F8A
:10298C00C82CC92CD02CA309A409A30A0319A40A86
:10299C00A801A80AA61FD32CD42CDD2CA509A609A6
:1029AC00A50A0319A60A0130FF007F08A806A90191
:1029BC00AA01230824040319E42CE52C1C2DA701DF
:1029CC00A70AF32C01300310A30DA40DFF3E031D29
:1029DC00E92C0130FF007F08A707A41FF62CF72C69
:1029EC00E82C01300310A90DAA0DFF3E031DF82C95
:1029FC0024082602031D042D23082502031C072D81
:102A0C00082D0F2D2308A5022408031CA603A602DB
:102A1C00291401300310A40CA30CFF3E031D102D30
:102A2C000130A702031D1B2D1C2DF72C28080319A0
:102A3C00202D212D262DA909AA09A90A0319AA0AB4
:102A4C002A08A4002908A300080083120313A3007A
:102A5C000630FF007F08A00023080A168A151225ED
:102A6C000A168A11903E840083170008031D3F2D1F
:102A7C00402D412D932D0630FF007F088312031348
:102A8C00A00023080A168A1512250A168A11903EF0
:102A9C008400831780010630FF007F088312031324
:102AAC00A00023080A168A1512250A168A11913ECF
:102ABC00840083178001840A80010630FF007F08A0
:102ACC0083120313A00023080A168A1512250A166E
:102ADC008A11933E8400831780010630FF007F0823
:102AEC0083120313A00023080A168A1512250A164E
:102AFC008A11943E8400831780010630FF007F0802
:102B0C0083120313A00023080A168A1512250A162D
:102B1C008A11953E840083178001080083120313E9
:102B2C00BC00BA01BB01BA01BB010E30FF007F082B
:102B3C00A0003C080A168A1512250A168A11CE3EE8
:102B4C00831203133A07B9003908840083178001F4
:102B5C000130BA070318BB0A0030BB0700303B0238
:102B6C000A3003193A02031CBC2DBD2D9B2D0E30CF
:102B7C00FF007F08A0003C080A168A1512250A16C9
:102B8C008A11D83E8400831780010E30FF007F0825
:102B9C0083120313A0003C080A168A1512250A1684
:102BAC008A11D93E8400831780010E30FF007F0804
:102BBC0083120313A0003C080A168A1512250A1664
:102BCC008A11DA3E840083178001840A8001831203
:102BDC0003133608FF007F08B2003708FF007F0898
:102BEC00B3003808FF007F08B4003C080A128A15AD
:102BFC00C7220A168A11080083120313C100410868
:102C0C00FF004108C00002300310C00DFF3E031D41
:102C1C000A2E0310400DA03E84007F088313800011
:102C2C004108C00002300310C00DFF3E031D192ED9
:102C3C000310400DA13E840080014108C000023009
:102C4C000310C00DFF3E031D262E0310400DA23EA7
:102C5C00840080014108C00002300310C00DFF3E0B
:102C6C00031D332E0310400DA33E84008001410848
:102C7C00C00002300310C00DFF3E031D402E031098
:102C8C00400DA43E84008001840A80014108C000EC
:102C9C0002300310C00DFF3E031D4F2E0310400DDC
:102CAC00A63E84008001840A80013C08FF007F0856
:102CBC00B2003D08FF007F08B3003E08FF007F080C
:102CCC00B4003F08FF007F08B50041080A128A15BE
:102CDC000B220A168A11080083120313C2000D304E
:102CEC00FF007F08A00042080A168A1512250A1652
:102CFC008A11B83E84008313000883120313B000BA
:102D0C00840A0008B100840A0008B200840A000892
:102D1C00B3000D30FF007F08A00042080A168A1588
:102D2C0012250A168A11B23E8400831300080A1673
:102D3C008A15E8240A168A11831203132008BE0090
:102D4C002108BF00C001C1014108A6004008A50030
:102D5C003F08A4003E08A3000D30FF007F08A00030
:102D6C0042080A168A1512250A168A11B43E8400E6
:102D7C008313000883120313A700840A0008A80019
:102D8C00840A0008A900840A0008AA000A168A11FD
:102D9C000F210A168A11831203132608B70025087F
:102DAC00B6002408B5002308B4000A168A115A2468
:102DBC000A168A118312031330080800F401F50176
:102DCC00F401F5010630FF007F08F00074080A16C4
:102DDC008A15A9240A168A11903E840083170008CC
:102DEC000319F92EFA2E5C2F0630FF007F08F00035
:102DFC0074080A168A15A9240A168A11933E8400AF
:102E0C0083170008031D0B2F0C2F3B2F0630FF00E0
:102E1C007F08F00074080A168A15A9240A168A116C
:102E2C00953E84000130FF007F0883178000063038
:102E3C00FF007F08F00074080A168A15A9240A16E8
:102E4C008A11943E840083170008F3000630FF00BB
:102E5C007F08F00074080A168A15A9240A168A112C
:102E6C00933E84007308831780000630FF007F08B0
:102E7C00F00074080A168A15A9240A168A11933EC2
:102E8C0084008317000803194C2F4D2F5C2F06303C
:102E9C00FF007F08F00074080A168A15A9240A1688
:102EAC008A11933E84000130831780020130F407AD
:102EBC000318F50A0030F507003075020A300319C3
:102ECC007402031C6A2F6B2FE82E0130FF007F0861
:102EDC0083160317CD00080083120313B8003208C1
:102EEC00FF003808B60001300310B60DFF3E031D7D
:102EFC007A2F0310360D513E84007F088313800017
:102F0C003308FF003808B60001300310B60DFF3E41
:102F1C00031D8B2F0310360D523E84007F0880005A
:102F2C003408FF003808B60001300310B60DFF3E20
:102F3C00031D9B2F0310360D533E84007F08800029
:102F4C003508FF003808B60001300310B60DFF3EFF
:102F5C00031DAB2F0310360D543E84007F088000F8
:102F6C003808B60001300310B60DFF3E031DB92F13
:102F7C000310360D523E84000008FF007F08A300AA
:102F8C00A4013808B70001300310B70DFF3E031D34
:102F9C00CA2F0310370D513E840000080A168A11FF
:102FAC0057210A168A11831203133808B600013010
:102FBC000310B60DFF3E031DDE2F0310360D543EDD
:102FCC00840083130008FF007F08A300A4013808C5
:102FDC00B70001300310B70DFF3E031DF02F031097
:102FEC00370D533E840000080A168A1157210A1621
:042FFC008A1108002E
:1037B80064008001840A0406031900340406DD2B22
:1037C8003F3406345B344F3466346D347D3407340B
:1037D8007F346F340A168A1532240A168A1583161E
:1037E800031311080238910008000A168A153224BA
:1037F8000A168A1583160313110801389100080068
:103808000A168A1532240A168A1583160313110814
:10381800043891000800831203131F0841389F00E1
:10382800831603131F08C0389F0008008312031370
:10383800A1002008FF002108553E84007F0883135B
:1038480080000800053083120313A6000030A7008B
:103858000A168A15EC250A168A150800831603131A
:103868001419372C382C322C11081F39031D3D2C04
:103878003E2C322C080083160313110820389100BF
:103888000A168A1532240A168A1583160313110894
:10389800103891000800831603131108DF399100CE
:1038A8000A168A1532240A168A1583160313110874
:1038B80010389100080083120313A3000E30FF0094
:1038C8007F08A00023080A168A1512250A168A15E9
:1038D800DA3E8400831700080800831603174D0397
:1038E800031D772C782C7C2C0130FF007F08CC003E
:1038F8004C080A168A158C250A168A1508008312A0
:1039080003138F018E0101309000210896002008D2
:1039180095000B3097000430831603138C00403059
:103928008B0008007E088A007F0882000A168A1524
:1039380096240A168A158000840A04087D0603194D
:103948000034FF0A0319FE0A9A2CF200F101721CD6
:10395800AE2CAF2CB32C7008FF007F08F1070310C2
:10396800F00D0310F20C7208031DBB2CBC2CAB2C01
:10397800710808000C08FB398C000A168A11E42625
:103988000A168A15790883120313FF0078088A003B
:1039980077088400760E8300FE0E7E0E09008312DF
:1039A8000313B3003108FF003308B20002300310DC
:1039B800B20DFF3E031DDB2C0310320DA13E840027
:1039C8007F08831380000800831203131F08103830
:1039D8009F001F0804389F001F19F32CF42CF02CAB
:1039E8001E08A100831603131E0883120313A000E8
:1039F8000800831203134308FF007F08C500450829
:103A0800553E840083130008FF007F08AE00450878
:103A18000A168A11E4220A168A150800831203136B
:103A2800A200A101221C192D1A2D1E2D2008FF000D
:103A38007F08A1070310A00D0310A20C2208031D84
:103A4800262D272D162D21080800831603174D0350
:103A5800031D2F2D302D372DCD01372D0A128A1138
:103A6800FE270A168A15831603174D0803193D2DDC
:103A78003E2D322DCD01080083120313A0000A1633
:103A88008A1532240A168A15831203132008930014
:103A98008C1D4F2D502D4C2D0C08F7398C0083169A
:103AA800031311084039080083120313A9002908D9
:103AB800A7002707D33E840083130008FF007F0870
:103AC800A0002908A8002807D23E840000080A168A
:103AD8008A155F260A168A1508000A168A153224DE
:103AE8000A168A15831603131108083891008312E1
:103AF8008C1D7F2D802D7B2D0C08F7398C000A1624
:103B08008A1532240A168A1583120313130808002B
:103B180083120313B00030080319932D942D9F2DA1
:103B2800AA010030AB00AC0001300A168A11F1215D
:103B38000A168A15AA2DAA01AA0A0030AB00AC0001
:103B480001300A168A11F1210A168A150800831213
:103B58000313BD003D08553E8400831380013908D6
:103B6800FF007F08B2003A08FF007F08B3003B0857
:103B7800FF007F08B4003C08FF007F08B5003D083F
:103B88000A168A1172270A168A1508008312031367
:103B9800A401A501A401A50124080A168A112B2550
:103BA8000A168A15013083120313A4070318A50AFD
:103BB8000030A507003025020A3003192402031C2F
:103BC800E62DE72DD02D83160317CC01CD01080073
:103BD800831203132708A1002608A000A030A20022
:103BE8000F30A3000A168A1510260A168A158312A2
:103BF80003132008FF3EA80021080318013EFF3EDA
:103C0800A9002908A1002808A0000A168A158324FB
:103C18000A168A158B17080083120313A401A5013D
:103C2800201C172E182E1E2E2208A4070318A50ADA
:103C38002308A50701300310A20DA30DFF3E031DA5
:103C48001F2E01300310A10CA00CFF3E031D262ED1
:103C580020082104031D312E322E142E2508A10020
:103C68002408A000080083120313A4000330FF00F7
:103C78007F08A00024080A168A1512250A168A1534
:103C8800CB3E840083130008FF007F0883120313D0
:103C9800A3000330FF007F08A00024080A168A1535
:103CA80012250A168A15CB3E8400831380018312DD
:103CB80003132308080083120313A6002608A10093
:103CC8002107E63E840083130008A200840A000846
:103CD800A300220884008317231C83130130A40047
:103CE800200A782E0310A40DFF3E031D762E24080B
:103CF8000005A500200A822E0310A50CFF3E031D17
:103D0800802E2508080083160313940183120313D9
:103D1800140828389400831603139101831203139F
:103D28004108B3004008B2003F08B1003E08B000A7
:103D38000030B7003D30B6000930B5000030B4009F
:103D48000A168A115A240A168A1583120313300890
:103D5800FF3E831603139300080083120313B10078
:103D68003108AF0001300310AF0DFF3E031DB72E21
:103D780003102F0DDF3E840083130008FF007F0827
:103D8800A3002E08FF007F08A4003108B00001300E
:103D98000310B00DFF3E031DCC2E0310300DDE3E88
:103DA800840000080A128A11C1270A168A15080019
:103DB800003083120313C1000130C0008630BF00F9
:103DC800A030BE000A168A1587260A168A150430FE
:103DD800FF007F0883120313A300A401A40A023082
:103DE8000A168A1157210A168A150330FF007F0820
:103DF80083120313A300A401A40A02300A168A112D
:103E080057210A168A15080083120313A9002008EF
:103E18002105A2002908A3002307E63E8400831396
:103E28000008A400840A0008A50024088400831759
:103E3800251C8313200900052204FF002908A60079
:103E48002607E63E840083130008A700840A0008BA
:103E5800A800270884008317281C83137F08800084
:103E6800080083120313B6003208FF003608B400B6
:103E78003407D23E84007F08831380003308FF0094
:103E88003608B4003407D33E84007F088000360823
:103E9800B4003407D33E84000008FF007F08A30065
:103EA800A401A40A3608B5003507D23E84000008EC
:103EB8000A168A1157210A168A1508008312031355
:103EC800A4000A168A15F9230A168A15702F0A16ED
:103ED8008A15EE230A168A15A0300A168A15402577
:103EE8000A168A15003A031D7A2F7B2F6B2F83122F
:103EF800031324080A168A1540250A168A15831200
:103F0800031323080A168A1540250A168A150A1665
:103F18008A1504240A168A15080083120313AE00B2
:103F28002A08FF002E08AD0002300310AD0DFF3E39
:103F3800031D992F03102D0DA23E84007F088313C3
:103F480080000530A3000030A4002C08A6002B0830
:103F5800A5000A168A11C9200A168A1583120313A6
:103F68002E08AD0002300310AD0DFF3E031DB72F24
:103F780003102D0DA43E8400230883138000840AB7
:103F8800240880000800D32F0430FF007F08A80011
:103F98000130A802280A031DD22FD32FCC2F0130BD
:103FA80083120313A4000030A5000030A6000030DF
:103FB800A7002408A0022508031C250FE42FE52FDD
:103FC800A1022608031C260FEA2FEB2FA2022708BE
:103FD800031C270FF02FF12FA302200A031DFE2F29
:103FE800210A031DFE2F220A031DFE2F230A031D8B
:083FF800FE2FFF2FC82F080067
:02400E003A3F37
:00000001FF
