:020000040000FA
:100000000A128A1112280800FE00030EF6000408E6
:10001000F7000A08F800831203137F08F9000A1694
:100020008A118E2F0A128A11152883179A30FD0023
:100030001630FE00E830FF00903084000A168A1166
:100040006A270A128A118313EC30FD001630FE0075
:10005000E030FF00E43084000A168A116A270A1291
:100060008A110A168A11D6260A128A11EE000A1679
:100070008A11D7260A128A11EF00A0308400E430DA
:100080000A168A11D8260A128A11203084004D30AF
:100090000A168A11D8260A128A11FA01FB01FC01FC
:1000A000FD0183010A128A114029FF0000308A00F5
:1000B0007F0882075A280A128A15E32C0A128A1529
:1000C00090290A128A11D62B0A128A15342F0A1285
:1000D0008A155E280A128A15B7290A128A11972AE8
:1000E0000A128A11702D831203134B08FF007F0838
:1000F000CA00CD01CD0A03300A128A1567220A12FE
:100100008A110A3083120313D5000030D6006E081E
:10011000DF00E0015F08D7006008D8000A128A15E6
:1001200017260A128A11831203135508FF007F084D
:10013000DB0005300A128A1538220A128A110A30A9
:1001400083120313D5000030D6000A30CD000030F2
:10015000CE006E08DF00E0015F08CF006008D0002D
:100160000A128A1146270A128A11831203134E08B3
:10017000D8004D08D7000A128A1517260A128A11CC
:10018000831203135508FF007F08DB0004300A12B6
:100190008A1538220A128A1102300A128A15DE21C3
:1001A0000A128A11003A0319D628D728E5284730C1
:1001B000831203136E020318DE28DF28E5280530BA
:1001C000FF007F08EE07FC01FD0101300A128A15CD
:1001D000DE210A128A11003A0319EF28F028FC28C0
:1001E0002830831203136E02031CF728F828FC281A
:1001F0000530EE02FC01FD0100300A128A15DE21F5
:100200000A128A11003A0319062907290E29043017
:10021000FF007F0883120313CB0014290130FF0075
:100220007F0883120313CB007D08E0007C08DF0009
:10023000FC0A0319FD0A00306002193003195F023D
:10024000031C232924293F29FC01FD01CD01033092
:100250000A128A1567220A128A11831203136E0882
:10026000FF007F08CE0008300A128A1596220A1273
:100270008A110230FF007F0883120313CB000800AD
:100280000A128A150D200A128A110A128A15FD20F7
:100290000A128A110A128A15FB220A128A110A12FC
:1002A0008A15BA200A128A110A168A11E8270A1238
:1002B0008A110A128A15DA200A128A110A128A157C
:1002C00020210A128A110A128A11F3210A128A11B4
:1002D0000A128A11D8260A128A11003083120313D7
:1002E000D000D1000130D2000030D30004300A1217
:1002F0008A11EB250A128A11003083120313D000F1
:10030000D1000230D2000030D30007300A128A1127
:10031000EB250A128A11003083120313D000D1009A
:100320001430D2000030D3000A300A128A11EB25B3
:100330000A128A11003083120313D000D100143046
:10034000D2000030D3000D300A128A11EB250A12B8
:100350008A11003083120313D000D1001430D20070
:100360000030D30010300A128A11EB250A128A11CC
:10037000003083120313D000D1001430D2000030BB
:10038000D30013300A128A11EB250A128A110030A9
:1003900083120313D000D1000130D2000030D3000B
:1003A00016300A128A11EB250A128A1100308312C4
:1003B0000313D000D1001430D2000030D30001303C
:1003C0000A128A11EB250A128A110A168A111327BA
:1003D0000A128A110A128A1165260A128A11EA295A
:1003E0000A128A11122883120313BB01BC01BD013A
:1003F000BE01BF01C001C101C2010830CD00003003
:10040000CE00CF01D0010A128A15C5220A128A1124
:10041000083083120313CD000030CE00CF01CF0A85
:10042000D0010A128A15C5220A128A1108308312D5
:100430000313CD000030CE000230FF007F08CF0054
:10044000D0010A128A15C5220A128A1108308312B5
:100450000313CD000030CE000330FF007F08CF0033
:10046000D0010A128A15C5220A128A110830831295
:100470000313CD000030CE000430FF007F08CF0012
:10048000D0010A128A15C5220A128A110830831275
:100490000313CD000030CE000530FF007F08CF00F1
:1004A000D0010A128A15C5220A128A110830831255
:1004B0000313CD000030CE000630FF007F08CF00D0
:1004C000D0010A128A15C5220A128A110830831235
:1004D0000313CD000030CE000730FF007F08CF00AF
:1004E000D0010A128A15C5220A128A110530831218
:1004F0000313CD000030CE000530FF007F08CF0091
:10050000D0010A128A15C5220A128A1105308312F7
:100510000313CD000030CE000430FF007F08CF0071
:10052000D0010A128A15C5220A128A110800831204
:100530000313330803199D2A9E2AD22A340803196B
:10054000A22AA32AAA2A0130B5070318B60A003046
:10055000B607AC2AB501B601003036020B300319DC
:1005600035020318B42AB52ABE2ACD01CD0A0630B9
:100570000A128A157C200A128A11D92A0030360202
:100580001530031935020318C62AC72ACF2ACD0110
:1005900006300A128A157C200A128A11D92AB5015E
:1005A000B601D92ACD0106300A128A157C200A121A
:1005B0008A118312031337080319DF2AE02A272B35
:1005C00038080319E42AE52AEC2A0130B907031890
:1005D000BA0A0030BA07EE2AB901BA0100303A026D
:1005E0000B30031939020318F62AF72A0A2BCD011A
:1005F000CD0A05300A128A1509220A128A118312BD
:100600000313CD01CD0A04300A128A1509220A12F9
:100610008A11372B00303A021530031939020318BA
:10062000122B132B242BCD0105300A128A15092217
:100630000A128A1183120313CD0104300A128A159B
:1006400009220A128A11372BB901BA01372BCD01C1
:1006500005300A128A1509220A128A11831203131D
:10066000CD0104300A128A1509220A128A110800E3
:10067000F5010630FF007F08F00075080A168A11A0
:1006800079270A128A11A03E8400831300080319F7
:100690004A2B4B2BC52B0630FF007F08F000750856
:1006A0000A168A1179270A128A11A13E840083133F
:1006B0000008F300840A0008F40073087404031DA2
:1006C000622B632B982B0630FF007F08F000750823
:1006D0000A168A1179270A128A11A53E8400013070
:1006E000FF007F08831380000630FF007F08F000C2
:1006F00075080A168A1179270A128A11A33E840006
:1007000083130008F300840A0008F4000630FF0099
:100710007F08F00075080A168A1179270A128A11D3
:10072000A13E8400730883138000840A740880004B
:100730000630FF007F08F00075080A168A11792735
:100740000A128A11A13E840083130008F300840A70
:100750000008F400730874040319AF2BB02BC52BE9
:100760000630FF007F08F00075080A168A11792705
:100770000A128A11A13E8400013083138002840F83
:100780000030031C8003800284030130FF007F08D7
:10079000F50708307502031CCE2BCF2B392B013007
:1007A000FF007F0883120313C7000800831203139E
:1007B0002C080319DC2BDD2BE02B0130AC02082CBC
:1007C0000630CD000030CE00CF010A128A1542203B
:1007D0000A128A11003A031DEE2BEF2B052C013073
:1007E000FF007F0883120313AB0702302B02031CA8
:1007F000FA2BFB2B082C0130FF007F08AA00AB016D
:100800006430FF007F08AC00082C83120313AB0197
:100810002F0803190C2C0D2C102C0130AF02392C91
:100820000630CD000030CE00CF01CF0A0A128A1563
:1008300042200A128A11003A031D1F2C202C362C4C
:100840000130FF007F0883120313AE0702302E022F
:10085000031C2B2C2C2C392C0130FF007F08AD0001
:10086000AE016430FF007F08AF00392C8312031300
:10087000AE01320803193D2C3E2C412C0130B2024E
:100880006C2C0630CD000030CE000230FF007F0817
:10089000CF000A128A1542200A128A11003A031D5B
:1008A000522C532C692C0130FF007F088312031354
:1008B000B10702303102031C5E2C5F2C6C2C01301E
:1008C000FF007F08B000B1016430FF007F08B20074
:1008D0006C2C83120313B1010800831203134B081D
:1008E000FF007F08CA000A30D5000030D600490852
:1008F000DF00E0015F08D7006008D8000A128A15FF
:1009000017260A128A11831203135508FF007F0865
:10091000DB0005300A128A1538220A128A110A30C1
:1009200083120313D5000030D6000A30CD0000300A
:10093000CE004908DF00E0015F08CF006008D0006A
:100940000A128A1146270A128A11831203134E08CB
:10095000D8004D08D7000A128A1517260A128A11E4
:10096000831203135508FF007F08DB0004300A12CE
:100970008A1538220A128A1102300A128A15DE21DB
:100980000A128A11003A031DC62CC72CD22C013042
:100990000A128A15DE210A128A11003A0319D12C93
:1009A000D22CD92C0330FF007F0883120313CB0015
:1009B000F12C00300A128A15DE210A128A11003A3F
:1009C0000319E32CE42CEB2C0430FF007F08831286
:1009D0000313CB00F12C0130FF007F0883120313B7
:1009E000CB0008000A128A15A6230A128A11FF00FA
:1009F0007F0883120313C9006E08FB3ED900FF3045
:100A000003180030DA005A08803ADB0080305B02BD
:100A1000031D0C2D49085902031C0F2D102D2E2DDE
:100A200083120313CD01CD0A05300A128A159B20CB
:100A30000A128A1183120313CD0102300A128A1599
:100A40009B200A128A1183120313CD01CD0A0130B3
:100A50000A128A1567220A128A115E2D8312031365
:100A60006E08053ED900003003180130DA005A083C
:100A7000803A803C031D3E2D59084902031C412D3C
:100A8000422D5E2D83120313CD0105300A128A1503
:100A90009B200A128A1183120313CD01CD0A023062
:100AA0000A128A159B200A128A1183120313CD01A0
:100AB00001300A128A1567220A128A110330831242
:100AC00003134A06031D652D662D6B2D0330FF00B1
:100AD0007F08CB006F2D0230FF007F08CB0008009D
:100AE000053083120313CD000030CE000530FF0027
:100AF0007F08CF00D0010A128A1544210A128A11F8
:100B0000053083120313CD000030CE000430FF0007
:100B10007F08CF00D0010A128A1544210A128A11D7
:100B2000083083120313CD000030CE00FF30FF00E9
:100B30007F08CF004C08D30053073C3E840083134A
:100B40000008903E840083170008FF007F08D00053
:100B50000A168A11A3270A128A11831203134C085A
:100B6000031DB32DB42DC52D0530CD000030CE00B2
:100B70000530FF007F08CF003B08FF007F08D00052
:100B80000A128A1544210A128A11831203134C0394
:100B9000031DCB2DCC2DDD2D0530CD000030CE003A
:100BA0000430FF007F08CF003D08FF007F08D00021
:100BB0000A128A1544210A128A110130FF007F08A7
:100BC00083120313CC0702304C06031DE82DE92DD8
:100BD000EA2DCC01080083120313D400D50106309E
:100BE000FF007F08CD0055080A168A11B9270A129E
:100BF0008A11A03E840083130008031D002E012EDD
:100C0000022E0E2E0130FF007F0883120313D5073A
:100C100008305502031C0D2E0E2EEF2D08308312C6
:100C2000031355020318152E162E602E0630FF00F2
:100C30007F08CD0055080A168A11B9270A128A11B1
:100C4000A03E8400831203135408FF007F0883131F
:100C500080000630FF007F08CD0055080A168A1173
:100C6000B9270A128A11A13E840083120313500887
:100C700083138000840A510880000630FF007F083B
:100C8000CD0055080A168A11B9270A128A11A33E07
:100C9000840083120313520883138000840A5308CC
:100CA00080000630FF007F08CD0055080A168A1123
:100CB000B9270A128A11A53E840083138001642E8D
:100CC0000130FF007F08C800080083120313EC0105
:100CD0000630FF007F08CD006C080A168A11B9277C
:100CE0000A128A11A53E8400831300080319792E85
:100CF0007A2EC12E0630FF007F0883120313CD0029
:100D00006C080A168A11B9270A128A11A03E8400BB
:100D1000831300080A128A1155200A128A1106301C
:100D2000FF007F0883120313CD006C080A168A1196
:100D3000B9270A128A11A53E840083138001063068
:100D4000FF007F0883120313CD006C080A168A1176
:100D5000B9270A128A11A33E840083130008831264
:100D60000313EA00840A0008EB006A086B04031D01
:100D7000BA2EBB2EC12E6C080A128A1572260A12D0
:100D80008A110130FF007F0883120313EC0708303B
:100D90006C02031CCC2ECD2E682E0A128A151C2440
:100DA0000A128A110A128A1103200A128A110800F3
:100DB0000A168A1123270A128A11DC30FF007F08E5
:100DC00083120313CE000830FF007F08CF000030ED
:100DD0000A128A15D3260A128A1183120313ED010F
:100DE0006D08DC3E840083130008EC006D08E43ECF
:100DF000840000086C060319FE2EFF2E012FEF0160
:100E00000B2F0130FF007F08ED0708306D02031C37
:100E10000A2F0B2FF02E6F0803190F2F102F1C2FE6
:100E200008300A128A1559240A128A11FF007F0815
:100E300083120313EE00452FE430FF007F08CE003D
:100E40000830FF007F08CF0000300A128A11AF2758
:100E50000A128A11003083120313D9000030D8001F
:100E60000030D7000A30D6000A128A15E1230A1290
:100E70008A11831203136E08FF007F08CE0008302A
:100E80000A128A1596220A128A1108008312031385
:100E9000D201CE1F4C2F4D2F542FCD09CE09CD0A94
:100EA0000319CE0AD201D20AD01F572F582F612F13
:100EB000CF09D009CF0A0319D00A0130FF007F08FB
:100EC000D206D301D4014D084E040319682F692FAF
:100ED000A02FD101D10A772F01300310CD0DCE0DF7
:100EE000FF3E031D6D2F0130FF007F08D107CE1F8D
:100EF0007A2F7B2F6C2F01300310D30DD40DFF3EC2
:100F0000031D7C2F4E085002031D882F4D084F02F1
:100F1000031C8B2F8C2F932F4D08CF024E08031CE0
:100F2000D003D002531401300310CE0CCD0CFF3E81
:100F3000031D942F0130D102031D9F2FA02F7B2F63
:100F400052080319A42FA52FAA2FD309D409D30A15
:100F50000319D40A5408CE005308CD0008008312A8
:100F60000313D2000A168A11FD260A128A11BD2F18
:100F70000A168A11F2260A128A11A0300A168A115C
:100F8000D0270A128A11003A031DC72FC82FB82F85
:100F90008312031352080A168A11D0270A128A11E3
:100FA00083120313D301D401E92F53084E07D00055
:100FB00050088400831300080A168A11D0270A12E9
:100FC0008A11013083120313D3070318D40A0030A7
:100FD000D4074F08D000D10151085402031DF22F4D
:100FE00050085302031CF52FF62FD52F0A168A112D
:100FF00008270A128A11080083120313290808001F
:1010000083160313141905280628002811081F3910
:10101000031D0B280C280028080083120313D1019C
:1010200051080A128A1572260A128A150130FF0029
:101030007F0883120313D10708305102031C2128B3
:1010400022281028C801FA01FB01C70108000A1272
:101050008A1500200A128A1583160313110808380E
:10106000910083128C1D3528362831280C08F73959
:101070008C000A128A1500200A128A1583120313A3
:1010800013080800831203134D08840083174E1CB5
:1010900083130130D0004F0A4F280310D00DFF3EBC
:1010A000031D4D2850080005D1004F0A5928031090
:1010B000D10CFF3E031D5728510808000A128A115F
:1010C000FC270A128A15FF00831603135A08D03E24
:1010D00084007F08831380000130FF007F08DA0757
:1010E0000A305A06031D752876287B28DA0101305C
:1010F000FF007F08DB00080083120313D0008A285A
:101100004D08FF007F08C3009A284D08FF007F08A4
:10111000C4009A285008CE00CF014F08003A0319A6
:1011200092289A284E08063A03198528013A03198D
:1011300080289A28080083120313D000A9284D089C
:10114000FF007F08C500B9284D08FF007F08C600D2
:10115000B9285008CE00CF014F08003A0319B12832
:10116000B9284E08023A0319A428073A03199F2800
:10117000B92808000230FF007F0883120313A00083
:101180000030A4000730A3007330A2005930A10042
:101190000030A8000F30A7004230A6004030A50064
:1011A000A9011F0841389F00831603131F08C03888
:1011B0009F00080083120313C501C6010730CD004C
:1011C0000030CE000530FF007F08CF00D0010A12AA
:1011D0008A15C5220A128A15073083120313CD001F
:1011E0000030CE000230FF007F08CF00D0010A128D
:1011F0008A15C5220A128A15080083120313C30137
:10120000C4010630CD000030CE000730FF007F085B
:10121000CF00D0010A128A15C5220A128A1506309B
:1012200083120313CD000030CE000630FF007F088C
:10123000CF00D0010A128A15C5220A128A150800A9
:1012400083120313B301B401B501B601B701B801AC
:10125000B901BA01CD0106300A128A157C200A12A2
:101260008A1583120313CD0105300A128A1509224B
:101270000A128A1583120313CD0104300A128A154B
:1012800009220A128A150800831203135008D1009C
:101290004F0A4C290310D10DFF3E031D4A294D086A
:1012A000840083174E1C83130130D2004F0A5A2941
:1012B0000310D20DFF3E031D58295208FF3A0005C6
:1012C0005104FF004D08840083174E1C83137F08D0
:1012D0008000080000300A128A15DE210A128A15E1
:1012E000003A0319742975298F2983120313CD013C
:1012F000CD0A00300A128A1567220A128A15831253
:101300000313CD01CD0A02300A128A1567220A1290
:101310008A150130FF007F0883120313CB000800F9
:10132000063083120313CD000030CE000730FF00DB
:101330007F08CF004308FF007F08D0000A128A15FB
:1013400044210A128A15063083120313CD0000309F
:10135000CE000630FF007F08CF004408FF007F0862
:10136000D0000A128A1544210A128A150800073093
:1013700083120313CD000030CE000530FF007F083C
:10138000CF004508FF007F08D0000A128A154421CB
:101390000A128A15073083120313CD000030CE00E5
:1013A0000230FF007F08CF004608FF007F08D00012
:1013B0000A128A1544210A128A150800831203139F
:1013C000CF00F4292A08FF007F08D000AA01072ACD
:1013D0002D08FF007F08D000AD01072A3008FF006C
:1013E0007F08D000B001072A4F08CD00CE014E087B
:1013F000003A0319FC29072A4D08003A0319E2298B
:10140000013A0319E829033A0319EE29072A50087B
:10141000080083120313D000212A4D08FF007F0823
:10142000BB00372A4D08FF007F08BD00372A4D0852
:10143000FF007F08BF00372A4D08FF007F08C1006A
:10144000372A5008CE00CF014F08003A0319292A45
:10145000372A4E08023A03191C2A013A0319172A9F
:10146000073A0319122A013A03190D2A372A0800EC
:1014700083120313DE00502A5B08FF007F08BC00C4
:10148000662A5B08FF007F08BE00662A5B08FF0033
:101490007F08C000662A5B08FF007F08C200662A3A
:1014A0005E08DC00DD015D08003A0319582A662A4F
:1014B0005C08023A03194B2A013A0319462A073AF3
:1014C0000319412A013A03193C2A662A08008312AB
:1014D0000313D0007F2A4D08FF007F08B300952A30
:1014E0004D08FF007F08B400952A4D08FF007F08D3
:1014F000B700952A4D08FF007F08B800952A5008CC
:10150000CE00CF014F08003A0319872A952A4E08CA
:10151000003A03196B2A013A0319702A033A031996
:10152000752A013A03197A2A952A080083120313AF
:10153000CF000A168A11FD260A128A15A42A0A1655
:101540008A11F2260A128A15A0300A168A11D027AB
:101550000A128A15003A031DAE2AAF2A9F2A831267
:1015600003134F080A168A11D0270A128A1583120C
:1015700003134E080A168A11D0270A128A150A1672
:101580008A1108270A128A150800831203135008CB
:10159000D1004F0ACD2A0310D10DFF3E031DCB2AE7
:1015A0004D08803ED2004E080318013E003ED30095
:1015B000520884008317531C83130130D4004F0A50
:1015C000E32A0310D40DFF3E031DE12A5408FF3A1D
:1015D00000055104FF004D08803ED5004E08031859
:1015E000013E003ED600550884008317561C831325
:1015F0007F088000080083120313AA01AB01AC012D
:10160000AD01AE01AF01B001B101B2010630CD00B4
:101610000030CE00CF01D001D00A0A128A15C522AF
:101620000A128A15063083120313CD000030CE0053
:10163000CF01CF0AD001D00A0A128A15C5220A1298
:101640008A15063083120313CD000030CE0002301D
:10165000FF007F08CF00D001D00A0A128A15C522E8
:101660000A128A1508003F2BFF30FF007F08D500C3
:101670000130D502550A031D3E2B3F2B382B01307C
:1016800083120313D1000030D2000030D3000030A9
:10169000D4005108CD025208031C520F502B512B7D
:1016A000CE025308031C530F562B572BCF0254085E
:1016B000031C540F5C2B5D2BD0024D0A031D6A2BBB
:1016C0004E0A031D6A2B4F0A031D6A2B500A031D85
:1016D0006A2B6B2B342B080083120313CD010530CA
:1016E0000A128A159B200A128A1583120313CD0150
:1016F00002300A128A159B200A128A1583120313DC
:10170000CD0100300A128A1567220A128A15831247
:101710000313CD0101300A128A1567220A128A15B5
:1017200083120313CD0102300A128A1567220A12AE
:101730008A1583120313CD0103300A128A1567221A
:101740000A128A1583120313CB01080083120313B4
:10175000D601D701831603135B080319B02BB12BF5
:10176000DE2B83120313D8015808D03E8400831364
:101770000008D400D5015408D6070318D70A550825
:10178000D7070130FF007F08D8070A305802031C32
:10179000CA2BCB2BB42B0A30CD000030CE0057081B
:1017A000D0005608CF000A128A159D240A128A1505
:1017B000831203134E08D7004D08D6008312560833
:1017C0000800EF2B0030D0000030CF000330CE00F7
:1017D000E830CD000A128A1533230A128A15013027
:1017E00083120313DA000030DB000030DC0000302D
:1017F000DD005A08D6025B08031C5B0F002C012C8D
:10180000D7025C08031C5C0F062C072CD8025D086D
:10181000031C5D0F0C2C0D2CD902560A031D1A2C2B
:10182000570A031D1A2C580A031D1A2C590A031DA6
:101830001A2C1B2CE22B08007A087B040319212C9C
:10184000222C292C0130FA020030031CFB03FB027E
:10185000442C83120313480803192F2C302C3C2CE2
:101860008830FA001330FB00CD0107300A128A15C8
:101870007C200A128A15442CCD01CD0A07300A12A9
:101880008A157C200A128A1583120313470803194C
:101890004A2C4B2C512C0130FF007F08C800C70197
:1018A000522CC80147080319562C572C522CC7013B
:1018B000080083120313CE000A168A11FD260A12AD
:1018C0008A15672C0A168A11F2260A128A15A03088
:1018D0000A168A11D0270A128A15003A031D712CA4
:1018E000722C622C831203134E080A168A11D02719
:1018F0000A128A150A168A11FD260A128A15A130C3
:101900000A168A11D0270A128A150A128A15272068
:101910000A128A15FF007F0883120313CF000A16EC
:101920008A1133270A128A150A168A1108270A1201
:101930008A15831203134F08080083120313D10181
:10194000D2014D084E040319A62CA72CDE2CD3017E
:10195000D30AB52C01300310CD0DCE0DFF3E031D73
:10196000AB2C0130FF007F08D307CE1FB82CB92C59
:10197000AA2C01300310D10DD20DFF3E031DBA2C4D
:101980004E085002031DC62C4D084F02031CC92CE3
:10199000CA2CD12C4D08CF024E08031CD003D00214
:1019A000511401300310CE0CCD0CFF3E031DD22C80
:1019B0000130D302031DDD2CDE2CB92C5208CE00E1
:1019C0005108CD0008000E2D0A128A156A210A124C
:1019D0008A15292D0A128A11F2240A128A15292D34
:1019E0000A128A116D240A128A15292D0A128A11E7
:1019F00073200A128A15292D0A128A156C230A12DD
:101A00008A15831203136E08FF007F08CE0008308A
:101A10000A128A1596220A128A15292D8312031397
:101A20004B08E100E2016208003A0319182D292D44
:101A30006108003A0319E42C013A0319EA2C033A2D
:101A40000319F02C013A0319F62C073A0319FC2C60
:101A5000292D0800003083120313D9000030D8006C
:101A60000030D7000030D6004D1C372D382D4F2DBB
:101A70005108D607520803110318013E0319412DDE
:101A8000D707530803110318013E0319482DD8073F
:101A9000540803110318013E03194F2DD9070130D3
:101AA000D5000310D10DD20DD30DD40DD50B512D72
:101AB00001300310D00CCF0CCE0CCD0CFF3E031D1B
:101AC000592D50084F044E044D04031D682D692DF7
:101AD000342D5908D0005808CF005708CE005608BA
:101AE000CD00080083160313940183120313140816
:101AF00028389400831603139101831203136B0893
:101B0000DD006A08DC006908DB006808DA000030E4
:101B1000E1003D30E0000930DF000030DE000A1255
:101B20008A1598270A128A15831203135A08FF3E52
:101B3000831603139300073083120313CD00003084
:101B4000CE000430FF007F08CF00D001D00A0A1277
:101B50008A15C5220A128A15073083120313CD0095
:101B60000030CE000330FF007F08CF00D001D00A44
:101B70000A128A15C5220A128A150800FF3083123C
:101B80000313DE00FF30DF00FF30E000FF30E10034
:101B90005D08D0005C08CF005B08CE005A08CD007D
:101BA0000030D4000030D3000F30D200A030D1007C
:101BB0000A128A152A250A128A15831203134D0860
:101BC000DE074E0803184E0FE62DE72DDF074F08FE
:101BD00003184F0FEC2DED2DE00750080318500AA5
:101BE000E1076108E5006008E4005F08E3005E08C3
:101BF000E2006508031D0B2E01306402031D082E50
:101C000000306302031D082E00306202031D082EFF
:101C100003180B2E0C2E162E6308CE006208CD0082
:101C20000A168A1153270A128A158B170800831285
:101C30000313DA01D81F1D2E1E2E252ED709D80911
:101C4000D70A0319D80ADA01DA0AD61F282E292E54
:101C50002E2ED509D609D50A0319D60A55085604D9
:101C60000319332E342E632ED901D90A422E0130A6
:101C70000310D50DD60DFF3E031D382E0130FF0099
:101C80007F08D907D61F452E462E372E56085802F4
:101C9000031D4C2E55085702031C4F2E502E562E56
:101CA0005508D7025608031CD803D8020130031088
:101CB000D60CD50CFF3E031D572E0130D902031D53
:101CC000622E632E462E5A080319672E682E6D2E3B
:101CD000D709D809D70A0319D80A5808D6005708CF
:101CE000D500080083120313D0000630FF007F08E0
:101CF000CD0050080A168A11B9270A128A15A03E8B
:101D00008400831300080319862E872ECC2E0630FC
:101D1000FF007F0883120313CD0050080A168A11B2
:101D2000B9270A128A15A03E840083138001063069
:101D3000FF007F0883120313CD0050080A168A1192
:101D4000B9270A128A15A13E840083138001840AF0
:101D500080010630FF007F0883120313CD00500876
:101D60000A168A11B9270A128A15A33E8400831322
:101D70008001840A80010630FF007F08831203136C
:101D8000CD0050080A168A11B9270A128A15A53EF5
:101D9000840083138001D22E0230FF007F0883125B
:101DA0000313C800080083120313D2000A168A1115
:101DB000FD260A128A15E12E0A168A11F2260A1247
:101DC0008A15A0300A168A11D0270A128A15003AFD
:101DD000031DEB2EEC2EDC2E8312031352080A1681
:101DE0008A11D0270A128A150A168A11FD260A12AC
:101DF0008A15A1300A168A11D0270A128A15831271
:101E00000313D301D401212F0A128A1527200A12A5
:101E10008A15FF008312031353084E07D0005008A1
:101E200084007F08831380000A168A1143270A1250
:101E30008A15013083120313D3070318D40A003024
:101E4000D4074F08D000D10151085402031D2A2F96
:101E500050085302031C2D2F2E2F042F0A168A110F
:101E600008270A128A150800831203132008E800C5
:101E700002300310E80DFF3E031D392F0310680DDB
:101E80001F049F001F0804389F001F19482F492F67
:101E9000452F0530203E840083130008DA00840AB1
:101EA0000008DB00840A0008DC00840A0008DD006A
:101EB0001E08E800E9016808E900E8018316031339
:101EC0001E08831203136807CD0000300318013089
:101ED0006907CE00CF01CE1BCF034F08D0000130E1
:101EE000203E84000008D100840A0008D200840A41
:101EF0000008D300840A0008D4000A128A152A2593
:101F00000A128A15831203135008E1004F08E000FB
:101F10004E08DF004D08DE000A128A1598270A12C3
:101F20008A15831203135A08FF007F08A9000800CE
:101F3000003083120313E6000030E5000030E400B7
:101F40000030E3005D085C045B045A040319A92F08
:101F5000AA2FF72FE701E70ABA2F0130E20003109A
:101F6000DA0DDB0DDC0DDD0DE20BAF2F0130FF00D4
:101F70007F08E707DD1FBD2FBE2FAD2F0130E20028
:101F80000310E30DE40DE50DE60DE20BC02F5D0837
:101F90006102031DD52F5C086002031DD52F5B086D
:101FA0005F02031DD52F5A085E02031CD82FD92FBC
:101FB000E82F5A08DE025B08031C5B0FDF025C0897
:101FC000031C5C0FE0025D08031C5D0FE10263145B
:101FD00001300310DD0CDC0CDB0CDA0CFF3E031DC2
:101FE000E92F0130E702031DF62FF72FBE2F6608F9
:101FF000DD006508DC006408DB006308DA00080027
:102DAC003C34013464008001840A040603190034A5
:102DBC000406D92E2334503477347234553470349D
:102DCC005F3431343F3406345B344F3466346D3405
:102DDC007D3407347F346F340A128A1500200A16AA
:102DEC008A118316031311080238910008000A1285
:102DFC008A1500200A168A1183160313110801384C
:102E0C00910008000A128A1500200A168A118316EE
:102E1C0003131108043891000800003083120313C7
:102E2C00DD000030DC000030DB000530DA000A1277
:102E3C008A15BE250A168A11080000308312031366
:102E4C00EB000130EA008630E900A030E8000A12FD
:102E5C008A1572250A168A110800831603131108A5
:102E6C00203891000A128A1500200A168A1183163E
:102E7C00031311081038910008008316031311086E
:102E8C00DF3991000A128A1500200A168A1183165E
:102E9C0003131108103891000800831203138F01DB
:102EAC008E01013090004E0896004D0895000B30B5
:102EBC0097000430831603138C0040308B000800FD
:102ECC007E088A007F0882000A168A1166270A1675
:102EDC008A118000840A04087D0603190034FF0A55
:102EEC000319FE0A6A2FF200F101721C7E2F7F2F4C
:102EFC00832F7008FF007F08F1070310F00D0310FB
:102F0C00F20C7208031D8B2F8C2F7B2F710808007D
:102F1C000C08FB398C000A128A1138230A168A1104
:102F2C00790883120313FF0078088A00770884005D
:102F3C00760E8300FE0E7E0E0900831203134F08DB
:102F4C005005D1004D08840083174E1C83134F0984
:102F5C0000055104FF004D08840083174E1C831399
:102F6C007F088000080083120313CF00CE014F1C92
:102F7C00C02FC12FC52F4D08FF007F08CE070310AF
:102F8C00CD0D0310CF0C4F08031DCD2FCE2FBD2F11
:102F9C004E08080083120313CD000A128A15002074
:102FAC000A168A11831203134D0893008C1DDF2F10
:102FBC00E02FDC2F0C08F7398C0083160313110853
:102FCC004039080083120313CD01CD014D08D03ECA
:102FDC008400831380010130FF007F08CD070A3085
:102FEC004D02031CFA2FFB2FEC2F83160313DA016F
:042FFC00DB010800ED
:02400E003A3F37
:00000001FF
